# 
# $Id: USB_FW.hex 10085 2011-11-13 14:33:46Z dima $
# 
:03004300021E009A
:03005300021E008A
:101E0000021E3000021E8D00021E7700021E4800D6
:081E1000021C1B00021BA400D0
:101000001201000200000040AAAAAAAAAAAA01028C
:1010100003010A0600020000004001000902370037
:10102000020100C0000904000002FFFFFF040705E1
:101030000202000200070586020002000904010006
:1010400002FFFFFF050705040200020007058802F2
:10105000000200001201000200000040E4E451110F
:101060000000010203010A06000200000040010026
:1010700009023700020100C0320904000002FFFF2C
:10108000FF04070502024000000705860240000039
:101090000904010002FFFFFF0507050402400000EC
:1010A0000705880240000006040016001400120024
:1010B0000A00260004030904160358006F0072009A
:1010C00063006F006D0020004C00540044001403C6
:1010D00041007300740072006900620061006E00DC
:1010E0006B001203530065007200690061006C0020
:1010F0004E006F000A0346005000470041002603DF
:101100004D0061006E00610067006D0065006E00BB
:101110007400500072006F0063006500730073007C
:061120006F0072000000E8
:050FF7000300000000F2
:1011ED0041E0370041E0BB0042E0B6000041E0388D
:1011FD0000021BE08A0218E07E43E0B800000052B6
:10120D00E039393733343A393936344D50202020CE
:04121D00202020006D
:101D96008B508A518952E5551555AE54700215542B
:101DA6004E6014AB500552E552AA5170020551140B
:081DB600F9ED12077180DF2234
:101BE1008B508A518952E5571557AE5670021556DA
:101BF1004E6026AB530555E555AA547002055414A1
:101C0100F912072BFFAB500552E552AA517002059C
:0A1C11005114F9EF12077180CD2283
:101D6C00C2B5C2B7E490E670F075B5E653B5EE4374
:101D7C00B28053B2F4A2B53390E0BBF0C2B3C2B69A
:0A1D8C007F327E00121DECD2B62259
:101E6000538EF75389FB5389F74389015389FDE466
:071E7000F58AF58CD2A922CE
:1017B3008C428D43AA06A9077553018A548955752E
:1017C300560075571C7B017AE07951121BE190E0BA
:1017D30051E0B4C20374C0F090E069E0FCA3E0FD03
:1017E300A3E0FEA3E064D1FFEE648DFEED644CFD47
:1017F300EC6449FC90E06912084D7EE07F517D1C4A
:101803007C001213607EE07F517B1C7A00AD43ACF9
:10181300421214147D1C7C00AF43AE421211267D8C
:0A1823001C7C00AF43AE42021C51D2
:0818A5008E428F438C448D45F7
:1018AD00C20712001290E160EFF0BF5004D2078022
:1018BD0057E490E161F0A3F090E161E0FEA3E0FF59
:1018CD00C39410EE648094805030E5452FF582E589
:1018DD00443EF583E0FF90E161E0FCA3E02543F594
:1018ED0082E5423CF583E0B5071090E162E004F03B
:1018FD0070C690E161E004F080BE90E161E070049B
:0A190D00A3E064107002D207A207E5
:0119170022AD
:020DE4008F3F3F
:100DE6001200128F40E4F544F545AD45AC441214AB
:100DF600CA746E2545F582E434E0F583E541F005D5
:100E060045E54570020544C39408E5446480948032
:100E160040D8E53F600490E06EF090E06EE0B4C02C
:100E260008754200754308800675421D7543367580
:100E36004400754508C3E5459410E54464809480F4
:100E460050231214C6746E2545F582E434E0F5830A
:100E5600E541F00545E545700205440543E5437067
:100E6600D4054280D07541FF75421D7543197544FE
:100E760000754510C3E545942CE544648094805084
:100E860033E540B4510E7B007A007941AD43AC4264
:100E9600FF1214D2746E2545F582E434E0F583E53D
:100EA60041F00545E545700205440543E54370C438
:100EB600054280C075421D75433EE4F541F544F593
:100EC60045C3E5459406E54464809480502FE5408B
:100ED600B4510A90E06EE0B4C2031214C6744B25F6
:100EE60045F582E434E0F583E541F00545E54570D6
:100EF6000205440543E54370C8054280C490E06E90
:070F0600E0B4C20374C0F067
:010F0D0022C1
:0A197E008E428F438B448A45894650
:101988007E00E5432DF54BEE3542F54A1200128FE5
:1019980047E5476451600BC3E5439410E542940062
:1019A8005035854248854349C3E549954BE54895F7
:1019B8004A5024AB44AA45A946AD49AC48AF4712A2
:1019C80017300549E5497002054874012546F54672
:0719D800E43545F54580D11F
:0119DF0022E5
:06182D008B3F8A40894157
:10183300D2067553017554E075556E75560075578C
:10184300107B017AE0799A121BE1E5412410F9E457
:101853003540853F53F554895575560075570C7BB4
:10186300017AE079AA121BE17EE07F9A7CE07D1A7F
:101873001217B37EE07F1AE541241CF9E43540FCDE
:10188300AD011218A55016AB3FE5412410F9E4351C
:1018930040FA7D1C7F197E1D12197E8002C206A2AA
:0118A300063E
:0118A4002221
:100F0E007F03121D41EF2402FFE43EA907753F0146
:100F1E00F540894190E06FE0FFE50C2408F582E48E
:100F2E00350BF583EFF090E070E0FFE50C2409F54A
:100F3E0082E4350BF583EFF090E071E0FFE50C24D1
:100F4E000AF582E4350BF583EFF090E072E0FFE5F1
:100F5E000C240BF582E4350BF583EFF090E073E093
:100F6E00FFE50C240CF582E4350BF583EFF090E0F1
:100F7E0074E0FFE50C240DF582E4350BF583EFF0FC
:100F8E007F087E00E4FDEDC394085028746E2FF5A3
:100F9E0082E434E0F583E0FCAB3FAA40A94175F052
:100FAE0002EDA4F58285F083EC1207830D0FBF00CE
:100FBE00010E80D2E5192404F582E43518F583E09C
:0E0FCE0030E0047F0180027F0090E037EFF0FA
:010FDC0022F2
:101B200090E071E02FFFE50C240AF582E4350BF517
:101B300083EFF0E50C240BF582E4350BF583E0FE32
:101B4000E50C240AF582E4350BF583E0FDEDFF900A
:101B5000E0B6EEF0A3EFF0D206121CB890E680E0FB
:041B600054F7F02224
:1016100090E600E054E74410F090E60174C0F090CA
:10162000E6107420F000000090E611F00000009039
:10163000E6047480F0000000740FF0000000E4F095
:1016400000000090E6187410F0000000E490E61925
:10165000F000000090E61A7408F0000000E490E644
:101660001BF000000090E6497482F0000000F000DA
:10167000000090E6247402F0000000E490E625F0FB
:1016800000000090E6957480F0000000F00000007B
:1016900043AF017B017AE07914755400755506E477
:0416A000FD021D9694
:061DE600D2877F0A7E0097
:101DEC007C007D181207A5EF1FAC0670011E4C700D
:021DFC00F622CD
:0A1A39008E3F8F408B418A428943A3
:101A4300E4F544F545C3E5459540E544953F503BF2
:101A5300AB41AA42A943854582854483120744FFCB
:101A6300E4FBFAC2B2EF1392B7EFC313FFD2B20B88
:101A7300BB00010AEB64084A70E9C2B220B002C39A
:0C1A8300220545E54570BE054480BAD33D
:011A8F002234
:101E180090E60174C0F0C2B67F967E00121DECD227
:081E2800B67F327E00021DECC2
:101EA300D2B1121DE6C2B1121DE8C2877F0A7E00BD
:031EB300021DEC21
:021B6400AB07CD
:101B6600E4F9FAEBC413131354011392B17F027E06
:101B760000121DECD2877F057E00121DECE925E0E0
:101B8600FFA283E4334FF97F057E00121DECEB259F
:0D1B9600E0FBC287121DE80ABA08C8AF01C3
:011BA300221F
:061A90008B538A548955B6
:101A9600A2AFE433F55B121EA3E4F55AE55AC395EB
:101AA600595027AB53AA54A955855A8275830012FB
:101AB6000744FF121B64AB56AA57A958855A82756C
:101AC6008300EF120783055A80D2120036E55B24A5
:031AD600FF92AFCD
:011AD90022EA
:0B003600C2B1121DE8121DE6D2B1227B
:100FDD00753F8F8F40755600755700755849755977
:0A0FED00027B007A00793F021A909F
:101C8700783F7C007D007BFF7A0F79F77E007F0528
:101C970012070530B41575560075570075583F750E
:101CA70059057B007A00793F121A90E5415401FFEC
:011CB700220A
:100B4800753F007540007541007543017544E075B7
:100B580045007546017547E0754808E4FFF54F7B89
:100B6800017AE07900F554755508FD121D96AB43DE
:100B7800AA44A9457401120771E4F54EE54EC45420
:100B8800F0AB43AA44A94590000112078385465655
:100B9800854757854858755908121A90AB46AA4791
:100BA800A948900002120744FF530770EF24E06041
:100BB8001B24F0602A24F0603C24F0604E2440702E
:100BC80060753F018518408519418024E519240185
:100BD800FDE43518A905753F01F54089418011E507
:100BE800192402FDE43518A905753F01F54089412E
:100BF800754F088035E5192403FDE43518A90575F6
:100C08003F01F5408941754F04801FE5192405FD12
:100C1800E43518A905753F01F5408941754F98805D
:100C280009753F00754000754100E5404541453F65
:100C38006022AB3FAA40A94112072BFED3954F4033
:100C480006AD4FAE0580008E4212072BC3954212A7
:100C58000771800BEF70047E0180027E008E427463
:100C680049254EF8A642054EE54EC39405500302A9
:100C78000B84AB43AA44A9457488120771AB43E5BA
:100C8800452401F9E43544FA755300755400755547
:100C980049755600755705121BE185465685475715
:0F0CA800854858755908AB43AA44A945021A90CC
:1019E0008F3F90E0B6E0FEA3E054F064607003EE39
:1019F000641160037F012290E037E070037F0F22C3
:101A0000E53F7003308108E53FB401062080037F85
:101A1000102290E0BBE0B53F037F0122E4F511D234
:101A200006121CB8AF3F90E0BBEFF024FF92B590D8
:091A3000E680E054F7F07F00228B
:04000E0090FC04F06E
:1000120090E678E0541824F06008240870087F50B5
:0800220080067F518002E4FF1B
:01002A0022B3
:0C14C600AD43AC427B007A007941AF409E
:0C14D2008F468C478D488B498A4A894B15
:1014DE00E4F54CF54D754E03FDF54FF550A2AF33C7
:1014EE00F551E54624AF600D047012754C00754D34
:1014FE00017D018008754C00754D02E4FDE54660E6
:10150E0051E54D454C604BE54790E0B8F0E548A3FA
:10151E00F074B82DF582E434E0AD82FCAB4DAF46ED
:10152E00121918754F008F507F0A7E00121ADAE5D5
:10153E0050454F60107CE07D6D7B01AF4612156B00
:10154E00754F008F5090E06DE0AB49AA4AA94B123F
:0C155E000771E55124FF92AFAE4FAF5073
:01156A00225E
:0C1730008F4C8C4D8D4E8B4F8A50895190
:10173C00E4F552F553755403FDF555F556A2AF3348
:10174C00F557E54C24AF600D0470127552007553BB
:10175C00027D018008755200755303E4FDE54C6071
:10176C003BE55345526035E54D90E0B8F0E54EA3AE
:10177C00F0AB4FAA50A95112072B90E0BAF074B8F5
:10178C002DF582E434E0AD82FCAB53AF4C1219184A
:10179C007555008F567F0A7E00121ADAE55724FF22
:0617AC0092AFAE55AF56EE
:0117B2002214
:10005600E4F531F532F535F53AF53BF53CF53DE598
:10006600AA5484600302063490E694E0FE90E69576
:10007600E0FBEEF53AEBF53BC39405E53A94004018
:100086000790F404E0FD80027DFFED12085900CED2
:100096000102B905030007035F0903C80B011E0E21
:1000A60000E40F01941102541305312503F13104C4
:1000B6004732045A3404A23504B93604D63703D578
:1000C6004503E647000005B475310075320790FC1C
:1000D600047481F0A37414F0E4A3F00205D77F0F33
:1000E600120FDD75310075320690FC047480F0E461
:1000F600A3F0753505F511FE74002535F9EE34F4D7
:10010600FA7B0112182D400690FC05740EF0E4FFF0
:10011600120DE47F8F0202B37F0E120FDD753100E0
:10012600753205748E12000E8F3D7B007A00793E83
:10013600E4FDFC1214D2E53D64516019E53D6450BE
:10014600601375310075320690FC047480F0A37458
:100156000BF00205D790E0BCE0FF120DE474002519
:1001660032F974FC3531FA7B01C0038B537554E0C8
:1001760075556E75560075572CD003121BE1742CFD
:100186002532F532E43531F5317F8E0202B3753111
:100196000075320790FC047491F090E678E090FCCC
:1001A60005F030B4047F0180027F0090FC06EFF07A
:1001B60074002532F974FC3531FA7B0175540075EB
:1001C6005512E4FD121D9674002532F974FC353182
:1001D600FA7B01C0038B537554E07555397556008B
:1001E600755706D003121BE174062532F532E43545
:1001F60031F531FE74002532F974FC3EFA7B01C0FC
:10020600038B537554E0755514755600755706D013
:1002160003121BE174062532F532E43531F531FE61
:1002260074002532F974FC3EFA7B01C0038B5375CA
:1002360054E075554B755600755706D003121BE1F1
:1002460074062532F532E43531F5310205D77F13D0
:10025600120FDD75310075321D749312000E8F3D3D
:1002660075381D753900753600753705D3E539942F
:1002760018E538941D5034E53DB4510E7B007A00E4
:10028600793EAD39AC38FF1214D274002537F582A9
:1002960074FC3536F583E53EF00539E5397002051F
:1002A600380537E53770C5053680C17F93120FDDF7
:1002B6000205D775310075320690FC047480F0E4AF
:1002C600A3F090F405E090E038F0E014702A30B026
:1002D6001E121E187553017554F475550675560091
:1002E6007557067B017AE07914121BE10205D79057
:1002F600FC057401F00203C08056753100753206A4
:1003060090FC047480F0E4A3F0753507AF35FEC3A6
:10031600E53B9FF534E53A9EF53390E038E01470FE
:100326002F20B00330B42074002FF974F43EFA7B0A
:1003360001AF34AE33121A395004E40204B290FC11
:1003460005740CF00205D790FC057402F00205D77F
:1003560090FC057403F00205D775310075320690DE
:10036600FC047480F0E4A3F090E038E014704530AB
:10037600B43A90E6017403F07F647E00121DEC909F
:10038600E0BCE0FF120DE47EE07F6E7CE07DBD12F6
:1003960017B37EE07FBDAD1CAC1B1218A55005122D
:1003A6000B48801690FC05740EF0800E90FC0574C8
:1003B6000DF0800690FC057403F0E490E038F0023E
:1003C60005D7E4F531F5327F02121B200205D7E48A
:1003D600FF120DE4120F0EE4FF1219E0E4FF800293
:1003E6007F01121B20121E180205D77531007532C7
:1003F6000690FC047480F0E4A3F090F405E0F53C6C
:10040600E4F511E53C64016004E53C703290E0B629
:10041600E0FEA3E054F064607003EE6411600280B5
:100426007290E037E070028058E5116401600AE5D9
:1004360011700C121C87EF6006853C110205D780EF
:100446005275310075320690FC0474B2F0A3E511C2
:10045600F00205D775310075320690FC047480F001
:10046600E4A3F090F405E0F53CFF1219E0EF24F167
:10047600600F1460152410701AE4F531F532020588
:10048600D790FC05740FF00205D790FC057410F0A8
:100496000205D790FC057401F00205D77531007589
:1004A600320690FC0474B5F090E0BBE090FC05F0D9
:1004B6000205D775310075320690FC0474B6F0A2B9
:1004C60080E43325E0FFA281E4334FA3F00205D791
:1004D600853A31853B3290FC0474B7F0753505C317
:1004E600E53B9535F534E53A9400F533740025354A
:1004F600F582E434F4F583E0648870030205D7AF2F
:10050600357E0074002FF9EE34F4FA7B01C003C087
:100516000174002FF9EE34FC8B56F5578958853453
:1005260059D001D003121A900205D77531007532E1
:100536000590FC0474A5F01200128F3D7B007A0032
:10054600793EE4FDFC1214D290E036E0FF0532E578
:1005560032AC3170020531142400F58274FC3CF58E
:1005660083EFF090E0BCE0FF0532E532AC3170027B
:100576000531142400F58274FC3CF583EFF0053256
:10058600E532AE3170020531142400F58274FC3E6A
:10059600F583E53EF00532E532AE317002053114E1
:1005A6002400F58274FC3EF58374FFF080237531D8
:1005B6000075320690FC047480F0C3E53B9405E5B3
:1005C6003A94005006A37407F0800690FC05740662
:1005D600F090F404E0B48004A3E0701290F404E018
:1005E6006405600FE06407600AE064096005E49052
:1005F600E038F0E5324531602CE532FD90FC00F044
:10060600E531FFA3F090F402E090FC02F090F403D1
:10061600E090FC03F090E69CEFF000000090E69D71
:0E062600EDF000000090E6957480F0000000FA
:0106340022A3
:02004100D322C8
:0800030090E6BAE0F51DD322DE
:101EC90090E740E51DF0E490E68AF090E68B04F097
:021ED900D32212
:08002B0090E6BAE0F51AD322B9
:101EDB0090E740E51AF0E490E68AF090E68B04F088
:021EEB00D32200
:101DBE0090E6B9E0242F600D04701990E604E0FF60
:101DCE00430780800890E604E0FF53077F00000081
:071DDE00EFF08002D322C3E5
:011DE50022DB
:101E3000C0E0C083C082D2015391EF90E65D74018F
:081E4000F0D082D083D0E03223
:101E7700C0E0C083C0825391EF90E65D7404F0D058
:061E870082D083D0E0329E
:101E8D00C0E0C083C0825391EF90E65D7402F0D044
:061E9D0082D083D0E03288
:101C1B00C0E0C083C08285120D85130E850E8285B0
:101C2B000D83A37402F085090F850A108510828538
:101C3B000F83A37407F05391EF90E65D7410F0D00F
:061C4B0082D083D0E032DC
:101E4800C0E0C083C082D2035391EF90E65D74086E
:081E5800F0D082D083D0E0320B
:101BA400C0E0C083C08290E680E030E72085090D64
:101BB400850A0E850E82850D83A37402F085120FAB
:101BC400851310851082850F83A37407F05391EF5A
:0D1BD40090E65D7420F0D082D083D0E03226
:101EB600000102020303040405050300000000C03C
:031EC600C2000057
:06122100011100010800AC
:03000B000212AC32
:1012AC00C0E0C0F0C083C082C0D075D000C000C008
:0D12BC0001C002C003C004C005C006C00789
:1012C90078217C007D007BFF7A1E79C07E007F0536
:1012D90012070590E0BBE0F526C204752700E50872
:1012E900600415088056750805E5117004C204806C
:1012F90043A280308101B3500B3081047F008030DC
:101309007F01802C30B4157556007557007558212A
:101319007559057B007A007921121A90E523540149
:10132900F527701090E0BBE060047F0080027F0128
:0C1339008F26D204300405AF261219E004
:10134500D007D006D005D004D003D002D001D000FC
:0B135500D0D0D082D083D0F0D0E032A6
:100CB700785B7CE17D017BFF7A1E79C57E007F042E
:100CC700120705C203C200D202C201121D6C121E16
:100CD70060121610750B10750C007514107515122F
:100CE700750910750A1C75121075137085120F851A
:100CF70013107516107517B412001290E159EFF022
:100D07007B017AE1795AE4FDFC1214D290E15AE0B2
:100D1700FF90E036F0E490E0BCF0EF64C26059EF7A
:100D270064C06054E490E15FF090E15FE0FFC3943A
:100D370004504A745B2FF582E434E1F583E0FF60E9
:100D47003C120DE47EE07F6E7CE07DBD1217B37E22
:100D5700E07FBDAD1CAC1B1218A5501490E15FE0FD
:100D6700245BF582E434E1F583E090E0BCF0800D8C
:100D770090E15FE004F080B1E4FF120DE4120F0E82
:100D8700D2E843D82090E668E04409F090E65CE0BA
:100D9700443DF012001290E159EFF07B017AE179BE
:100DA7005AE4FDFC1214D290E15AE064C26007E4F1
:100DB70090E0BBF0C2B57F01121B20D2AFD28C539B
:100DC7008EF8C203C2AF120056D2AF300105120926
:0D0DD70020C2013003EEC203121D1580E79B
:0B00460090E50DE030E402C322D3225D
:1009200090E6B9E070030209E5147003020A5A2444
:10093000FE7003020AD524FB70030209DF14700362
:100940000209D91470030209CD1470030209D324DB
:10095000056003020B341200414003020B4090E695
:10096000BBE024FE602714603E24FD601114602764
:1009700024067056E50B90E6B3F0E50C80421200B9
:10098000465044E51490E6B3F0E5158033E50D904C
:10099000E6B3F0E50E802985120F851310E50F9060
:1009A000E6B3F0E510801990E6BAE0FF121D41AA07
:1009B00006A9077B01EA494B600DEE90E6B3F0EF24
:1009C00090E6B4F0020B40020B2F020B2F121EDB3D
:1009D000020B4012002B020B40120003020B4012CC
:1009E0001EC9020B4090E6B8E0247F601514601920
:1009F00024027063A200E43325E0FFA202E4334F37
:100A00008041E490E740F0803F90E6BCE0547EFFF8
:100A10007E00E0D394807C0040047D0180027D0054
:100A2000EC4EFEED4F24B6F582741E3EF583E49342
:100A3000FF3395E0FEEF24A1FFEE34E68F82F583CD
:100A4000E0540190E740F0E4A3F090E68AF090E6ED
:100A50008B7402F0020B40020B2F90E6B8E024FEEC
:100A6000601624026003020B4090E6BAE0B4010570
:100A7000C200020B40020B2F90E6BAE0705590E6E0
:100A8000BCE0547EFF7E00E0D394807C0040047D77
:100A90000180027D00EC4EFEED4F24B6F582741EFF
:100AA0003EF583E493FF3395E0FEEF24A1FFEE349F
:100AB000E68F82F583E054FEF090E6BCE0548013AC
:100AC0001313541FFFE0540F2F90E683F0E04420EF
:100AD000F0806D805A90E6B8E024FE601924027020
:100AE0004E90E6BAE0B40104D200805490E6BAE039
:100AF0006402604C803990E6BCE0547EFF7E00E0EA
:100B0000D394807C0040047D0180027D00EC4EFE89
:100B1000ED4F24B6F582741E3EF583E493FF3395C2
:100B2000E0FEEF24A1FFEE34E68F82F583800D9086
:100B3000E6A08008121DBE500790E6A0E04401F038
:070B400090E6A0E04480F004
:010B4700228B
:03003300020FFCBD
:040FFC0053D8EF32A5
:101227006080E0D9292E43C9A2D87C013D3654A15C
:10123700ECF0061362A705F3C0C7738C98932BD9FC
:10124700BC4C82CA1E9B573CFDD4E01667426F1800
:101257008A17E512BE4EC4D6DA9EDE49A0FBF58E8C
:10126700BB2FEE7AA968799115B2073F94C210890E
:101277000B225F21807F5D9A5A903227353ECCE75B
:10128700BFF79703FF1930B348A5B5D1D75E922AA8
:10129700AC56AAC64FB838D296A47DB676FC6BE298
:0412A7009C7404F13E
:081360008C448D45AB07AA0681
:10136800E4F546F547C3E5479545E5446480F8E567
:1013780046648098400302140FE54725E0FFE546E0
:1013880033FE74D92FF58274E03EF583E0FF7E00CA
:10139800AC44AD451207B78C488D49E54725E0FFB9
:1013A800E54633FE74DA2FF58274E03EF583E0FFFC
:1013B8007E00AC44AD451207B78C4A8D4BE54965B4
:1013C8004B7004E548654A6030EB2549F582EA35FB
:1013D80048F583E0F9EB254BF582EA354AF583E0D9
:1013E800FFEB2549F582EA3548F583EFF0EB254B0D
:1013F800F582EA354AF583E9F00547E547600302D7
:0B140800136D054602136D7E007F018E
:0114130022B6
:0C1414008E448F458C468D478A488B49DA
:10142000E54545446006E54745467004E4FEFF2275
:10143000E4F54AF54BC3E54B9549E5486480F8E58A
:101440004A648098507BE4F54CF54DE547254BF513
:1014500082E546354AF583E4F0C3E54D9549E54814
:101460006480F8E54C6480985049E54D254B24D9BB
:10147000F582E434E0F583E0FFE545254DF582E5AE
:1014800044354CF583E0FEEF8EF0A4FFE547254B95
:10149000F582E546354AF583E02FFFE547254BF514
:1014A00082E546354AF583EFF0054DE54D70AA0516
:1014B0004C80A6054BE54B6003021435054A021427
:0514C000357E007F01F4
:0114C5002204
:101CE70012072BFF9000031207441207719000039D
:101CF700EF120783900002120744FF9000011207BA
:0E1D070044900002120783900001EF02078350
:081126008E448F458C468D4775
:10112E00E4F548F549E547AE467802CEA2E713CE80
:10113E0013D8F8FFC3E5499FEE6480F8E548648054
:10114E009840030211E8E549AE487802C333CE3326
:10115E00CED8F92545FFEE3544FAA9077B018B4A17
:10116E00F54B894C74DA2549F582E434E0F583E0D9
:10117E00541FFFE48F50F54FF54EF54D121CE7ABA3
:10118E004AAA4BA94C120813C374209550F9F812B1
:10119E000800C004C005C006C007A94C120813A958
:1011AE0050A8011207EDD003D002D001D000EF4BB2
:1011BE00FFEE4AFEED49FDEC48FCAB4AAA4BA94CAA
:1011CE00120833AB4AAA4BA94C121CE70549E54954
:0E11DE00600302113305480211337E007F01C9
:0111EC0022E0
:101C5100D3ED9410EC64809480402AED1D70011C3A
:101C6100142FF582EE3CF583E0FB547F24D9F582F5
:101C7100E434E0F583E0F9540F2FF582E43EF58377
:051C8100E06BF080CBD8
:011C8600223B
:101D150090E682E030E004E020E60B90E682E030D9
:101D2500E119E030E71590E680E04401F07F147E8C
:0C1D350000121ADA90E680E054FEF02262
:101CB80030060990E680E0440AF0800790E680E06C
:101CC8004408F07FDC7E05121ADA90E65D74FFF0B6
:0F1CD80090E65FF05391EF90E680E054F7F02232
:101ADA008E588F5990E600E054187012E559240187
:101AEA00FFE43558C313F558EF13F559801590E6FE
:101AFA0000E05418FFBF100BE55925E0F559E558E9
:101B0A0033F558E5591559AE58700215584E600507
:061B1A00121EED80EE2218
:06156B008C528D53AE0707
:10157100EB70037F012290E678E020E6F990E678AF
:101581007480F0EE25E0440190E679F090E678E091
:1015910030E0F990E678E020E26BE030E167BB01F2
:1015A1000790E678E04420F090E679E0F5541BEBF3
:1015B100603090E678E030E0F990E678E020E245AE
:1015C100BB010790E678E04420F090E679E0FF0562
:1015D10053E553AC527002055214F5828C83EFF03F
:1015E10080CC90E678E030E0F990E678E020E215F2
:1015F10090E678E04440F090E679E08553828552A8
:0E16010083F07F012290E678E04440F07F0005
:01160F0022B8
:1019180090E678E020E6F990E6787480F0EF25E02C
:1019280090E679F090E678E030E0F990E678E0200B
:10193800E23AE030E136EBD3940040260DEDAE04F8
:1019480070010C14F5828E83E090E679F01B90E626
:1019580078E030E0F990E678E020E210E020E1D687
:10196800800A90E678E04440F07F012290E678E033
:051978004440F07F0077
:01197D002247
:021D4100A907F0
:101D4300AE16AF178F828E83A3E064037017AD01C5
:101D530019ED7001228F828E83E07C002FFDEC3E13
:081D6300FEAF0580DFE4FEFF86
:011D6B002255
:101EED007400F58690FDA57C05A3E582458370F908
:011EFD0022C2
:030000000216A441
:0C16A400787FE4F6D8FD75815B0216EB40
:10063500E709F608DFFA8046E709F208DFFA803EA7
:1006450088828C83E709F0A3DFFA8032E309F60894
:10065500DFFA8078E309F208DFFA807088828C83FC
:10066500E309F0A3DFFA806489828A83E0A3F608B0
:10067500DFFA805889828A83E0A3F208DFFA804C8A
:1006850080D280FA80C680D4806980F28033801061
:1006950080A680EA809A80A880DA80E280CA8033CA
:1006A50089828A83ECFAE493A3C8C582C8CCC58342
:1006B500CCF0A3C8C582C8CCC583CCDFE9DEE78012
:1006C5000D89828A83E493A3F608DFF9ECFAA9F091
:1006D500EDFB2289828A83ECFAE0A3C8C582C8CCE7
:1006E500C583CCF0A3C8C582C8CCC583CCDFEADE00
:1006F500E880DB89828A83E493A3F208DFF980CC62
:1007050088F0EF60010E4E60C388F0ED2402B4045A
:100715000050B9F582EB2402B4040050AF23234501
:060725008223900685739B
:10072B00BB010689828A83E0225002E722BBFE02CC
:09073B00E32289828A83E49322FF
:10074400BB010CE58229F582E5833AF583E022506A
:1007540006E92582F8E622BBFE06E92582F8E222B4
:0D076400E58229F582E5833AF583E49322CE
:10077100BB010689828A83F0225002F722BBFE0167
:02078100F32261
:10078300F8BB010DE58229F582E5833AF583E8F0AC
:10079300225006E92582C8F622BBFE05E92582C858
:0207A300F22240
:1007A500EF8DF0A4A8F0CF8CF0A428CE8DF0A42E68
:0207B500FE2222
:1007B700C2D5EC30E709B2D5E4C39DFDE49CFCEE5D
:1007C70030E715B2D5E4C39FFFE49EFE12087FC34E
:1007D700E49DFDE49CFC800312087F30D507C3E449
:0607E7009FFFE49EFE22CC
:1007ED00E8600FECC313FCED13FDEE13FEEF13FFEA
:0307FD00D8F1220E
:10080000E8600FEFC333FFEE33FEED33FDEC33FC56
:03081000D8F122FA
:10081300BB010789828A830208E05005E9F80208D0
:10082300D4BBFE05E9F80208EC89828A830208F842
:10083300BB010789828A8302084D5005E9F8020942
:0A08430008BBFE05E9F802091422C3
:0C084D00ECF0A3EDF0A3EEF0A3EFF0221E
:10085900D083D082F8E4937012740193700DA3A32E
:1008690093F8740193F5828883E473740293686042
:06087900EFA3A3A380DF42
:1016B000020CB7E493A3F8E493A34003F68001F28D
:1016C00008DFF48029E493A3F85407240CC8C3333B
:1016D000C4540F4420C8834004F456800146F6DF0A
:1016E000E4800B01020408102040809011EDE47E9C
:1016F000019360BCA3FF543F30E509541FFEE493FF
:10170000A360010ECF54C025E060A840B8E493A3C5
:10171000FAE493A3F8E493A3C8C582C8CAC583CAF0
:10172000F0A3C8C582C8CAC583CADFE9DEE780BEA8
:0112AB000042
:10087F00BC000BBE0029EF8DF084FFADF022E4CC5D
:10088F00F875F008EF2FFFEE33FEEC33FCEE9DEC26
:10089F00984005FCEE9DFE0FD5F0E9E4CEFD22ED6C
:1008AF00F8F5F0EE8420D21CFEADF075F008EF2FB6
:1008BF00FFED33FD4007985006D5F0F222C398FDA7
:0508CF000FD5F0EA2244
:0C08D400E6FC08E6FD08E6FE08E6FF2250
:0C08E000E0FCA3E0FDA3E0FEA3E0FF228B
:0C08EC00E2FC08E2FD08E2FE08E2FF2248
:1008F800E493FC740193FD740293FE740393FF2246
:0C090800ECF608EDF608EEF608EFF6221B
:0C091400ECF208EDF208EEF208EFF2221F
:00000001FF

