#
# $Id: USB_FW.201.hex 11502 2015-12-03 17:01:41Z dima $
#
:03004300021F0099
:03005300021F0089
:101F0000021E4C00021EA900021E9300021E640065
:081F1000021C3B00021BC4008F
:101000001201000200000040AAAAAAAAAAAA01028C
:1010100003010A0600020000004001000902370037
:10102000020100C0000904000002FFFFFF040705E1
:101030000202000200070586020002000904010006
:1010400002FFFFFF050705040200020007058802F2
:10105000000200001201000200000040E4E451110F
:101060000000010203010A06000200000040010026
:1010700009023700020100C0320904000002FFFF2C
:10108000FF04070502024000000705860240000039
:101090000904010002FFFFFF0507050402400000EC
:1010A0000705880240000006040016001400120024
:1010B0000A00260004030904160358006F0072009A
:1010C00063006F006D0020004C00540044001403C6
:1010D00041007300740072006900620061006E00DC
:1010E0006B001203530065007200690061006C0020
:1010F0004E006F000A0346005000470041002603DF
:101100004D0061006E00610067006D0065006E00BB
:101110007400500072006F0063006500730073007C
:061120006F0072000000E8
:051EF7000300000000E3
:1012BC0041E0370041E0BC0042E0B7000041E038BB
:1012CC0000021BE08B0218E07F43E0B900000053E2
:1012DC00E03931313435313A31313435334D202028
:0512EC0020202020007D
:101D8C008B538A548955E5581558AE577002155720
:101D9C004E6014AB530555E555AA54700205541406
:081DAC00F9ED12077780DF2238
:101C01008B538A548955E55A155AAE5970021559A4
:101C11004E6026AB560558E558AA57700205571471
:101C2100F9120731FFAB530555E555AA547002056A
:0A1C31005414F9EF12077780CD225A
:101DDC00D2B7E490E670F0F5B575B5E653B5E743C8
:101DEC00B28853B2FCC2B3D2B1C2B2C2B67F32FE19
:061DFC00121E22D2B622E5
:101E7C00538EF75389FB5389F74389015389FDE44A
:071E8C00F58AF58CD2A922B2
:1018CD008C448D45AA06A9077556018A5789587506
:1018DD005900755A1C7B017AE07952121C0190E077
:1018ED006AE0FCA3E0FDA3E0FEA3E064D1FFEE649B
:1018FD008DFEED644CFDEC6449FC90E06A120853DA
:10190D007EE07F527D1C7C001214307EE07F527B86
:10191D001C7A00AD45AC441214E47D1C7C00AF452F
:10192D00AE441211F57D1C7C00AF45AE44021C7116
:08185A008E448F458C468D473A
:10186200C20712001290E161EFF0BF5004D207806C
:1018720057E490E162F0A3F090E162E0FEA3E0FFA2
:10188200C39410EE648094805030E5472FF582E5D2
:10189200463EF583E0FF90E162E0FCA3E02545F5DA
:1018A20082E5443CF583E0B5071090E163E004F083
:1018B20070C690E162E004F080BE90E162E07004E4
:0A18C200A3E064107002D207A20731
:0118CC0022F9
:020E31008F41EF
:100E33001200128F42E4F546F547AD47AC46120F58
:100E43005F746F2547F582E434E0F583E543F005ED
:100E530047E54770020546C39408E54664809480DD
:100E630040D8E541600490E06FF090E06FE0B4C0DB
:100E730008754400754508800675441D754536752B
:100E83004600754708C3E5479410E546648094809F
:100E93005023120F5B746F2547F582E434E0F5832A
:100EA300E543F00547E547700205460545E545700E
:100EB300D4054480D07543FF75441D7545197546A7
:100EC30000754710C3E547942CE546648094805031
:100ED30033E542B4510E7B007A007943AD45AC440F
:100EE300FF120F67746F2547F582E434E0F583E55D
:100EF30043F00547E547700205460545E54570C4DF
:100F0300054480C075441D75453EE4F543F546F53B
:100F130047C3E5479406E54664809480502FE54235
:100F2300B4510A90E06FE0B4C203120F5B744C2516
:100F330047F582E434E0F583E543F00547E5477080
:100F43000205460545E54570C8054480C490E06F39
:070F5300E0B4C20374C0F01A
:010F5A002274
:0A19A3008E448F458B468A47894821
:1019AD007E00E5452DF54DEE3544F54C1200128FB8
:1019BD0049E5496451600BC3E5459410E544940035
:1019CD00503585444A85454BC3E54B954DE54A95C4
:1019DD004C5024AB46AA47A948AD4BAC4AAF49126F
:1019ED00175B054BE54B7002054A74012548F54818
:0719FD00E43547F54780D1F6
:011A040022BF
:0617E2008B418A4289439D
:1017E800D2067556017557E075586F755900755AC8
:1017F800107B017AE0799B121C01E5432410F9E47F
:101808003542854156F5578958755900755A0C7BEC
:10181800017AE079AB121C017EE07F9B7CE07D1AA7
:101828001218CD7EE07F1AE543241CF9E43542FC0A
:10183800AD0112185A5016AB41E5432410F9E435AE
:1018480042FA7D1C7F197E1D1219A38002C206A2CE
:011858000689
:01185900226C
:101126007F03121D61EF2402FFE43EA9077541010A
:10113600F542894390E070E0FFE50C2408F582E46F
:10114600350BF583EFF090E071E0FFE50C2409F52F
:1011560082E4350BF583EFF090E072E0FFE50C24B6
:101166000AF582E4350BF583EFF090E073E0FFE5D6
:101176000C240BF582E4350BF583EFF090E074E078
:10118600FFE50C240CF582E4350BF583EFF090E0D7
:1011960075E0FFE50C240DF582E4350BF583EFF0E1
:1011A6007F087E00E4FDEDC394085028746F2FF588
:1011B60082E434E0F583E0FCAB41AA42A94375F032
:1011C60002EDA4F58285F083EC1207890D0FBF00AE
:1011D600010E80D2E5192404F582E43518F583E082
:0E11E60030E0047F0180027F0090E037EFF0E0
:0111F40022D8
:101B400090E072E02FFFE50C240AF582E4350BF5F6
:101B500083EFF0E50C240BF582E4350BF583E0FE12
:101B6000E50C240AF582E4350BF583E0FDEDFF90EA
:101B7000E0B7EEF0A3EFF0D206121CD890E680E0BA
:041B800054F7F02204
:10163B0090E600E054E74410F090E60174C0F0909F
:10164B00E6107420F000000090E611F0000000900E
:10165B00E6047480F0000000740FF0000000E4F06A
:10166B0000000090E6187410F0000000E490E619FA
:10167B00F000000090E61A7408F0000000E490E619
:10168B001BF000000090E6497482F0000000F000AF
:10169B00000090E6247402F0000000E490E625F0D0
:1016AB0000000090E6957480F0000000F000000050
:1016BB0043AF017B017AE07914755700755806E446
:0416CB00FD021D8C73
:061E1C00D2837F0A7E0064
:101E22007C007D181207ABEF1FAC0670011E4C70D0
:021E3200F62296
:0A1A5E008E418F428B438A44894574
:101A6800E4F546F547C3E5479542E54695415036C6
:101A7800AB43AA44A94585478285468312074AFF96
:101A8800E4FBFAC2B2EF1392B1EFC313FFD2B20B69
:101A9800BB00010AEB64084A70E9C2B20547E54792
:071AA80070C3054680BFD3A7
:011AAF002214
:101E340090E60174C0F0C2B67FC27E01121E22D2A7
:081E4400B67F327E00021E226F
:101EBF00D287121E1CC287121E1EC2837F0A7E008B
:031ECF00021E22CE
:021B8400AB07AD
:101B8600E4F9FAEBC413131354011392877F027E10
:101B960000121E22D2837F057E00121E22E925E056
:101BA600FFA2B3E4334FF97F057E00121E22EB2518
:0D1BB600E0FBC283121E1E0ABA08C8AF0170
:011BC30022FF
:061AB0008B558A56895790
:101AB600A2AFE433F55D121EBFE4F55CE55CC395A9
:101AC6005B5027AB55AA56A957855C8275830012D1
:101AD600074AFF121B84AB58AA59A95A855C82751E
:101AE6008300EF120789055C80D2120036E55D247B
:031AF600FF92AFAD
:011AF90022CA
:0B003600C287121E1E121E1CD2872261
:101E020075418F8F42755800755900755A4B755B35
:0A1E1200027B007A007941021AB049
:101CA70078417C007D007BFF7A1E79F77E007F05F7
:101CB70012070B30B415755800755900755A4175E0
:101CC7005B057B007A007941121AB0E5435401FFA6
:011CD70022EA
:100B4E007541007542007543007545017546E075A7
:100B5E0047007548017549E0754A08E4F551FFF5FF
:100B6E00527B017AE07900F557755808FD121D8CFD
:100B7E00AB45AA46A9477401120777E4F550E55034
:100B8E00C454F0AB45AA46A94790000112078985C7
:100B9E004858854959854A5A755B08121AB0AB48B0
:100BAE00AA49A94A90000212074AFE5407FFEE54C2
:100BBE0070F55124E0602D24F0604924F060582433
:100BCE00F0606A24F0607C24506003020C72754160
:100BDE0001851842851943EF24FE600624FE70221B
:100BEE0080738076E5192401FDE43518A905754159
:100BFE0001F5428943EF24FC6006240270048055FF
:100C0E008058805BE5192402FDE43518A90575416D
:100C1E0001F54289438048E5192403FDE43518A9FE
:100C2E0005754101F54289437552048040E519244A
:100C3E0005FDE43518A905754101F5428943755244
:100C4E0098802A754101851842851943EF24FE606C
:100C5E000924FE700A7552028013755206800E75B5
:100C6E0052088009754100754200754300E5424502
:100C7E004345416022AB41AA42A943120731FED33C
:100C8E0095524006AD52AE0580008E44120731C318
:100C9E009544120777800FE5516003B470047E010E
:100CAE0080027E008E44744B2550F8A6440550E514
:100CBE0050C394055003020B8CAB45AA46A947744A
:100CCE0088120777AB45E5472401F9E43546FA75F6
:100CDE00560075570075584B755900755A05121CFC
:100CEE0001854858854959854A5A755B08AB45AA0E
:060CFE0046A947021AB0EE
:101A05008F4190E0B7E0FEA3E054F064607003EE10
:101A1500641160037F012290E037E070037F0F229D
:101A2500E5417003308108E541B401062080037F5C
:101A3500102290E0BCE0B541037F0122E4F511D20C
:101A450006121CD8AF4190E0BCEFF024FF92B59090
:091A5500E680E054F7F07F002266
:04000E0090FC04F06E
:1000120090E678E0541824F06008240870087F50B5
:0800220080067F518002E4FF1B
:01002A0022B3
:0C0F5B00AD45AC447B007A007943AF4206
:0C0F67008F488C498D4A8B4B8A4C894D79
:100F7300E4F54EF54F755003FDF551F552A2AF332D
:100F8300F553E54824AF600D047012754E00754F9C
:100F9300017D018008754E00754F02E4FDE5486050
:100FA30051E54F454E604BE54990E0B9F0E54AA362
:100FB300F074B92DF582E434E0AD82FCAB4FAF4859
:100FC30012193D7551008F527F0A7E00121AFAE5FD
:100FD30052455160107CE07D6E7B01AF481215963F
:100FE3007551008F5290E06EE0AB4BAA4CA94D12A5
:0C0FF3000777E55324FF92AFAE51AF52D8
:010FFF0022CF
:0C175B008F4E8C4F8D508B518A52895359
:10176700E4F554F555755603FDF557F558A2AF3313
:10177700F559E54E24AF600D047012755400755588
:10178700027D018008755400755503E4FDE54E6040
:101797003FE55545546039E54F90E0B9F0E550A372
:1017A700F0AB51AA52A95312073190E0BBF0C2B770
:1017B70074B92DF582E434E0AD82FCAB55AF4E121F
:1017C700193D7557008F587F0A7E00121AFAD2B753
:0A17D700E55924FF92AFAE57AF585A
:0117E10022E5
:10005600E4F531F532F535F53CF53DF53EF53FE590
:10006600AA5484600302063A90E694E0FE90E69570
:10007600E0FBEEF53CEBF53DC39405E53C94004012
:100086000790F404E0FD80027DFFED12085F00CECC
:100096000102C30503080703580903D80B011E0E06
:1000A60000E40F019411025E130541250401310499
:1000B6005732046A3404B23504C93604E63703E518
:1000C6004503F647000005BA75310075320790FC06
:1000D600047481F0A37414F0E4A3F00205DD7F0F2D
:1000E600121E0275310075320690FC047480F0E42D
:1000F600A3F0753505F511FE74002535F9EE34F4D7
:10010600FA7B011217E2400690FC05740EF0E4FF3C
:10011600120E317F8F0202BD7F0E121E0275310054
:10012600753205748E12000E8F3F7B007A0079407F
:10013600E4FDFC120F67E53F64516019E53F64502A
:10014600601375310075320690FC047480F0A37458
:100156000BF00205DD90E0BDE0FF120E31740025C4
:1001660032F974FC3531FA7B01C0038B567557E0C2
:1001760075586F755900755A2CD003121C01742CD2
:100186002532F532E43531F5317F8E0202BD753107
:100196000075320790FC047491F090E678E090FCCC
:1001A60005F030B3047F0280027F0030B4047E0184
:1001B60080027E00EE4F90FC06F074002532F97442
:1001C600FC3531FA7B01755700755812E4FD121D96
:1001D6008C74002532F974FC3531FA7B01C0038B2F
:1001E600567557E0755839755900755A06D0031279
:1001F6001C0174062532F532E43531F531FE740002
:100206002532F974FC3EFA7B01C0038B567557E024
:10021600755814755900755A06D003121C017406D8
:100226002532F532E43531F531FE74002532F974A4
:10023600FC3EFA7B01C0038B567557E075584C752A
:100246005900755A06D003121C0174062532F53280
:10025600E43531F5310205DD7F13121E02753100DA
:1002660075321D749312000E8F3F75381D75390057
:10027600753600753705D3E5399418E538941D5061
:1002860034E53FB4510E7B007A007940AD39AC3885
:10029600FF120F6774002537F58274FC3536F58337
:1002A600E540F00539E539700205380537E5377060
:1002B600C5053680C17F93121E020205DD75310029
:1002C60075320690FC047480F0E4A3F090F405E027
:1002D60090E038F0E0147071121E3430B31B75567E
:1002E600017557F4755806755900755A067B017ADB
:1002F600E07914121C010205DD90FC057401F00280
:1003060003D075310075320690FC047480F0E4A3C6
:10031600F0753507AF35FEC3E53D9FF534E53C9EE8
:10032600F53390E038E014702074002FF974F43E31
:10033600FA7B01AF34AE33121A5E5004E40204C2F3
:1003460090FC05740CF00205DD90FC057403F002C8
:1003560005DD75310075320690FC047480F0E4A367
:10036600F090E038E014705CE4FFFE20B411C2B2F5
:10037600D2B1D2B20FBF00010EEF640A4E70EC305C
:10038600B43A90E6017403F07F647E00121E229058
:10039600E0BDE0FF120E317EE07F6F7CE07DBE1295
:1003A60018CD7EE07FBEAD1CAC1B12185A5005124C
:1003B6000B4E801690FC05740EF0800E90FC0574B2
:1003C6000DF0800690FC057403F0E490E038F0022E
:1003D60005DDE4F531F5327F02121B400205DDE44E
:1003E600FF120E31121126E4FF121A05E4FF8002F5
:1003F6007F01121B40121E340205DD753100753275
:100406000690FC047480F0E4A3F090F405E0F53E59
:10041600E4F511E53E64016004E53E703290E0B714
:10042600E0FEA3E054F064607003EE6411600280A5
:100436007290E037E070028058E5116401600AE5C9
:1004460011700C121CA7EF6006853E110205DD80B7
:100456005275310075320690FC0474B2F0A3E511B2
:10046600F00205DD75310075320690FC047480F0EB
:10047600E4A3F090F405E0F53EFF121A05EF24F12F
:10048600600F1460152410701AE4F531F532020578
:10049600DD90FC05740FF00205DD90FC057410F08C
:1004A6000205DD90FC057401F00205DD753100756D
:1004B600320690FC0474B5F090E0BCE090FC05F0C8
:1004C6000205DD75310075320690FC0474B6F0A2A3
:1004D60080E43325E0FFA281E4334FA3F00205DD7B
:1004E600853C31853D3290FC0474B7F0753505C303
:1004F600E53D9535F534E53C9400F5337400253536
:10050600F582E434F4F583E0648870030205DDAF18
:10051600357E0074002FF9EE34F4FA7B01C003C077
:100526000174002FF9EE34FC8B58F559895A85343D
:100536005BD001D003121AB00205DD7531007532A9
:100546000590FC0474A5F01200128F3F7B007A0020
:100556007940E4FDFC120F6790E036E0FF0532E5D6
:1005660032AC3170020531142400F58274FC3CF57E
:1005760083EFF090E0BDE0FF0532E532AC3170026A
:100586000531142400F58274FC3CF583EFF0053246
:10059600E532AE3170020531142400F58274FC3E5A
:1005A600F583E540F090E6017403F07F647E001267
:1005B6001E22802375310075320690FC047480F08B
:1005C600C3E53D9405E53C94005006A37407F0800E
:1005D6000690FC057406F090F404E0B48004A3E0F1
:1005E600701290F404E06405600FE06407600AE0AE
:1005F60064096005E490E038F0E5324531602CE5A9
:1006060032FD90FC00F0E531FFA3F090F402E0909B
:10061600FC02F090F403E090FC03F090E69CEFF00F
:1006260000000090E69DEDF000000090E6957480D5
:04063600F0000000D0
:01063A00229D
:02004100D322C8
:0800030090E6BAE0F51DD322DE
:101EE50090E740E51DF0E490E68AF090E68B04F07B
:021EF500D322F6
:08002B0090E6BAE0F51AD322B9
:101F180090E740E51AF0E490E68AF090E68B04F04A
:021F2800D322C2
:101DB40090E6B9E0242F600D04701990E604E0FF6A
:101DC400430780800890E604E0FF53077F0000008B
:071DD400EFF08002D322C3EF
:011DDB0022E5
:101E4C00C0E0C083C082D2015391EF90E65D740173
:081E5C00F0D082D083D0E03207
:101E9300C0E0C083C0825391EF90E65D7404F0D03C
:061EA30082D083D0E03282
:101EA900C0E0C083C0825391EF90E65D7402F0D028
:061EB90082D083D0E0326C
:101C3B00C0E0C083C08285120D85130E850E828590
:101C4B000D83A37402F085090F850A108510828518
:101C5B000F83A37407F05391EF90E65D7410F0D0EF
:061C6B0082D083D0E032BC
:101E6400C0E0C083C082D2035391EF90E65D740852
:081E7400F0D082D083D0E032EF
:101BC400C0E0C083C08290E680E030E72085090D44
:101BD400850A0E850E82850D83A37402F085120F8B
:101BE400851310851082850F83A37407F05391EF3A
:0D1BF40090E65D7420F0D082D083D0E03206
:101ED200000102020303040405050300000000C020
:031EE200C200003B
:0612F100011100010800DC
:03000B0002137C61
:10137C00C0E0C0F0C083C082C0D075D000C000C037
:0D138C0001C002C003C004C005C006C007B8
:1013990078217C007D007BFF7A1E79DC7E007F0549
:1013A90012070B90E0BCE0F526C204752700E5089A
:1013B900600415088056750805E5117004C204809B
:1013C90043A280308101B3500B3081047F0080300B
:1013D9007F01802C30B415755800755900755A2154
:1013E900755B057B007A007921121AB0E523540157
:1013F900F527701090E0BCE060047F0080027F0157
:0C1409008F26D204300405AF26121A050D
:10141500D007D006D005D004D003D002D001D0002B
:0B142500D0D0D082D083D0F0D0E032D5
:100D0400785C7CE17D017BFF7A1E79E17E007F04C3
:100D140012070BC203C200D202C201121DDC121E52
:100D24007C12163B750B10750C007514107515129A
:100D3400750910750A1C75121075137085120F85CC
:100D440013107516107517B412001290E15AEFF0D3
:100D54007B017AE1795BE4FDFC120F6790E15BE0D3
:100D6400FF90E036F0E490E0BDF0EF64C26059EF2C
:100D740064C06054E490E160F090E160E0FFC394EB
:100D840004504A745C2FF582E434E1F583E0FF609B
:100D94003C120E317EE07F6F7CE07DBE1218CD7E6A
:100DA400E07FBEAD1CAC1B12185A501490E160E0F9
:100DB400245CF582E434E1F583E090E0BDF0800D3D
:100DC40090E160E004F080B1E4FF120E31121126CC
:100DD400D2E843D82090E668E04409F090E65CE06D
:100DE400443DF012001290E15AEFF07B017AE17970
:100DF4005BE4FDFC120F6790E15BE064C26007E412
:100E040090E0BCF0C2B57F01121B40D2AFD28C532C
:100E14008EF8C203C2AF120056D2AF3001051209D8
:0D0E240026C2013003EEC203121D3580E727
:0B00460090E50DE030E402C322D3225D
:1009260090E6B9E070030209EB147003020A602432
:10093600FE7003020ADB24FB70030209E514700350
:100946000209DF1470030209D31470030209D924C3
:10095600056003020B3A1200414003020B4690E683
:10096600BBE024FE602714603E24FD60111460275E
:1009760024067056E50B90E6B3F0E50C80421200B3
:10098600465044E51490E6B3F0E5158033E50D9046
:10099600E6B3F0E50E802985120F851310E50F905A
:1009A600E6B3F0E510801990E6BAE0FF121D61AAE1
:1009B60006A9077B01EA494B600DEE90E6B3F0EF1E
:1009C60090E6B4F0020B46020B35020B35121F18E7
:1009D600020B4612002B020B46120003020B4612B4
:1009E6001EE5020B4690E6B8E0247F6015146019F8
:1009F60024027063A200E43325E0FFA202E4334F31
:100A06008041E490E740F0803F90E6BCE0547EFFF2
:100A16007E00E0D394807C0040047D0180027D004E
:100A2600EC4EFEED4F24D2F582741E3EF583E49320
:100A3600FF3395E0FEEF24A1FFEE34E68F82F583C7
:100A4600E0540190E740F0E4A3F090E68AF090E6E7
:100A56008B7402F0020B46020B3590E6B8E024FEDA
:100A6600601624026003020B4690E6BAE0B4010564
:100A7600C200020B46020B3590E6BAE0705590E6CE
:100A8600BCE0547EFF7E00E0D394807C0040047D71
:100A96000180027D00EC4EFEED4F24D2F582741EDD
:100AA6003EF583E493FF3395E0FEEF24A1FFEE3499
:100AB600E68F82F583E054FEF090E6BCE0548013A6
:100AC6001313541FFFE0540F2F90E683F0E04420E9
:100AD600F0806D805A90E6B8E024FE60192402701A
:100AE6004E90E6BAE0B40104D200805490E6BAE033
:100AF6006402604C803990E6BCE0547EFF7E00E0E4
:100B0600D394807C0040047D0180027D00EC4EFE83
:100B1600ED4F24D2F582741E3EF583E493FF3395A0
:100B2600E0FEEF24A1FFEE34E68F82F583800D9080
:100B3600E6A08008121DB4500790E6A0E04401F03C
:070B460090E6A0E04480F0FE
:010B4D002285
:03003300021EFCAE
:041EFC0053D8EF3296
:1012F7006080E0DA292E43C9A2D87C013D3654A18B
:10130700ECF0061362A705F3C0C7738C98932BD92B
:10131700BC4C82CA1E9B573CFDD4E01667426F182F
:101327008A17E512BE4EC4D6DA9EDE49A0FBF58EBB
:10133700BB2FEE7AA968799115B2073F94C210893D
:101347000B225F21807F5D9A5A903227353ECCE78A
:10135700BFF79703FF1930B348A5B5D1D75E922AD7
:10136700AC56AAC64FB838D296A47DB676FC6BE2C7
:041377009C7404F16D
:081430008C468D47AB07AA06AC
:10143800E4F548F549C3E5499547E5466480F8E58C
:101448004864809840030214DFE54925E0FFE54839
:1014580033FE74DA2FF58274E03EF583E0FF7E00F8
:10146800AC46AD471207BD8C4A8D4BE54925E0FFD8
:10147800E54833FE74DB2FF58274E03EF583E0FF28
:101488007E00AC46AD471207BD8C4C8D4DE54B65D3
:101498004D7004E54A654C6030EB254BF582EA3522
:1014A8004AF583E0F9EB254DF582EA354CF583E002
:1014B800FFEB254BF582EA354AF583EFF0EB254D36
:1014C800F582EA354CF583E9F00549E54960030200
:0B14D800143D054802143D7E007F011A
:0114E30022E6
:0C14E4008E468F478C488D498A4A8B4BFE
:1014F000E54745466006E54945487004E4FEFF229D
:10150000E4F54CF54DC3E54D954BE54A6480F8E5AF
:101510004C648098507BE4F54EF54FE549254DF538
:1015200082E548354CF583E4F0C3E54F954BE54A39
:101530006480F8E54E6480985049E54F254D24DAE3
:10154000F582E434E0F583E0FFE547254FF582E5D9
:1015500046354EF583E0FEEF8EF0A4FFE549254DBC
:10156000F582E548354CF583E02FFFE549254DF53B
:1015700082E548354CF583EFF0054FE54F70AA053D
:101580004E80A6054DE54D6003021505054C02157C
:05159000057E007F0153
:011595002233
:101D0700120731FF90000312074A1207779000036A
:101D1700EF12078990000212074AFF90000112078D
:0E1D27004A900002120789900001EF0207891E
:0811F5008E468F478C488D499E
:1011FD00E4F54AF54BE549AE487802CEA2E713CEA9
:10120D0013D8F8FFC3E54B9FEE6480F8E54A648080
:10121D009840030212B7E54BAE4A7802C333CE3382
:10122D00CED8F92547FFEE3546FAA9077B018B4C41
:10123D00F54D894E74DB254BF582E434E0F583E002
:10124D00541FFFE48F52F551F550F54F121D07ABAA
:10125D004CAA4DA94E120819C374209552F9F812D3
:10126D000806C004C005C006C007A94E120819A97A
:10127D0052A8011207F3D003D002D001D000EF4BDA
:10128D00FFEE4AFEED49FDEC48FCAB4CAA4DA94ED4
:10129D00120839AB4CAA4DA94E121D07054BE54B53
:0E12AD006003021202054A0212027E007F0157
:0112BB002210
:101C7100D3ED9410EC64809480402AED1D70011C1A
:101C8100142FF582EE3CF583E0FB547F24DAF582D4
:101C9100E434E0F583E0F9540F2FF582E43EF58357
:051CA100E06BF080CBB8
:011CA600221B
:101D350090E682E030E004E020E60B90E682E030B9
:101D4500E119E030E71590E680E04401F07F147E6C
:0C1D550000121AFA90E680E054FEF02222
:101CD80030060990E680E0440AF0800790E680E04C
:101CE8004408F07FDC7E05121AFA90E65D74FFF076
:0F1CF80090E65FF05391EF90E680E054F7F02212
:101AFA008E5A8F5B90E600E054187012E55B240161
:101B0A00FFE4355AC313F55AEF13F55B801590E6D7
:101B1A0000E05418FFBF100BE55B25E0F55BE55AC2
:101B2A0033F55AE55B155BAE5A7002155A4E6005DD
:061B3A00121F2A80EE22BA
:061596008C548D55AE07D8
:10159C00EB70037F012290E678E020E6F990E67884
:1015AC007480F0EE25E0440190E679F090E678E066
:1015BC0030E0F990E678E020E26BE030E167BB01C7
:1015CC000790E678E04420F090E679E0F5561BEBC6
:1015DC00603090E678E030E0F990E678E020E24583
:1015EC00BB010790E678E04420F090E679E0FF0537
:1015FC0055E555AC547002055414F5828C83EFF00C
:10160C0080CC90E678E030E0F990E678E020E215C6
:10161C0090E678E04440F090E679E0855582855478
:0E162C0083F07F012290E678E04440F07F00DA
:01163A00228D
:10193D0090E678E020E6F990E6787480F0EF25E007
:10194D0090E679F090E678E030E0F990E678E020E6
:10195D00E23AE030E136EBD3940040260DEDAE04D3
:10196D0070010C14F5828E83E090E679F01B90E601
:10197D0078E030E0F990E678E020E210E020E1D662
:10198D00800A90E678E04440F07F012290E678E00E
:05199D004440F07F0052
:0119A2002222
:021D6100A907D0
:101D6300AE16AF178F828E83A3E064037017AD01A5
:101D730019ED7001228F828E83E07C002FFDEC3EF3
:081D8300FEAF0580DFE4FEFF66
:011D8B002235
:101F2A007400F58690FDA57C05A3E582458370F9CA
:011F3A002284
:030000000216CF16
:0C16CF00787FE4F6D8FD75815D021716E7
:10063B00E709F608DFFA8046E709F208DFFA803EA1
:10064B0088828C83E709F0A3DFFA8032E309F6088E
:10065B00DFFA8078E309F208DFFA807088828C83F6
:10066B00E309F0A3DFFA806489828A83E0A3F608AA
:10067B00DFFA805889828A83E0A3F208DFFA804C84
:10068B0080D280FA80C680D4806980F2803380105B
:10069B0080A680EA809A80A880DA80E280CA8033C4
:1006AB0089828A83ECFAE493A3C8C582C8CCC5833C
:1006BB00CCF0A3C8C582C8CCC583CCDFE9DEE7800C
:1006CB000D89828A83E493A3F608DFF9ECFAA9F08B
:1006DB00EDFB2289828A83ECFAE0A3C8C582C8CCE1
:1006EB00C583CCF0A3C8C582C8CCC583CCDFEADEFA
:1006FB00E880DB89828A83E493A3F208DFF980CC5C
:10070B0088F0EF60010E4E60C388F0ED2402B40454
:10071B000050B9F582EB2402B4040050AF232345FB
:06072B00822390068B738F
:10073100BB010689828A83E0225002E722BBFE02C6
:09074100E32289828A83E49322F9
:10074A00BB010CE58229F582E5833AF583E0225064
:10075A0006E92582F8E622BBFE06E92582F8E222AE
:0D076A00E58229F582E5833AF583E49322C8
:10077700BB010689828A83F0225002F722BBFE0161
:02078700F3225B
:10078900F8BB010DE58229F582E5833AF583E8F0A6
:10079900225006E92582C8F622BBFE05E92582C852
:0207A900F2223A
:1007AB00EF8DF0A4A8F0CF8CF0A428CE8DF0A42E62
:0207BB00FE221C
:1007BD00C2D5EC30E709B2D5E4C39DFDE49CFCEE57
:1007CD0030E715B2D5E4C39FFFE49EFE120885C342
:1007DD00E49DFDE49CFC800312088530D507C3E43D
:0607ED009FFFE49EFE22C6
:1007F300E8600FECC313FCED13FDEE13FEEF13FFE4
:03080300D8F12207
:10080600E8600FEFC333FFEE33FEED33FDEC33FC50
:03081600D8F122F4
:10081900BB010789828A830208E65005E9F80208C4
:10082900DABBFE05E9F80208F289828A830208FE2A
:10083900BB010789828A830208535005E9F8020936
:0A0849000EBBFE05E9F802091A22B1
:0C085300ECF0A3EDF0A3EEF0A3EFF02218
:10085F00D083D082F8E4937012740193700DA3A328
:10086F0093F8740193F5828883E47374029368603C
:06087F00EFA3A3A380DF3C
:1016DB00020D04E493A3F8E493A34003F68001F214
:1016EB0008DFF48029E493A3F85407240CC8C33310
:1016FB00C4540F4420C8834004F456800146F6DFDF
:10170B00E4800B01020408102040809012BCE47EA0
:10171B00019360BCA3FF543F30E509541FFEE493D3
:10172B00A360010ECF54C025E060A840B8E493A39A
:10173B00FAE493A3F8E493A3C8C582C8CAC583CAC5
:10174B00F0A3C8C582C8CAC583CADFE9DEE780BE7D
:01137B000071
:10088500BC000BBE0029EF8DF084FFADF022E4CC57
:10089500F875F008EF2FFFEE33FEEC33FCEE9DEC20
:1008A500984005FCEE9DFE0FD5F0E9E4CEFD22ED66
:1008B500F8F5F0EE8420D21CFEADF075F008EF2FB0
:1008C500FFED33FD4007985006D5F0F222C398FDA1
:0508D5000FD5F0EA223E
:0C08DA00E6FC08E6FD08E6FE08E6FF224A
:0C08E600E0FCA3E0FDA3E0FEA3E0FF2285
:0C08F200E2FC08E2FD08E2FE08E2FF2242
:1008FE00E493FC740193FD740293FE740393FF2240
:0C090E00ECF608EDF608EEF608EFF62215
:0C091A00ECF208EDF208EEF208EFF22219
:00000001FF

