# 
# $Id: USB_FW.hex 8826 2010-12-28 20:05:30Z dima $ 
# 
:03004300021D009B
:03005300021D008B
:101D0000021CD900021D5D00021D4700021D1800C3
:081D1000021AC800021A51007A
:100D00001201000200000040AAAAAAAAAAAA01028F
:100D100003010A060002000000400100090237003A
:100D2000020100C0000904000002FFFFFF040705E4
:100D30000202000200070586020002000904010009
:100D400002FFFFFF050705040200020007058802F5
:100D5000000200001201000200000040E4E4511112
:100D60000000010203010A06000200000040010029
:100D700009023700020100C0320904000002FFFF2F
:100D8000FF0407050202400000070586024000003C
:100D90000904010002FFFFFF0507050402400000EF
:100DA0000705880240000006040016001400120027
:100DB0000A00260004030904160358006F0072009D
:100DC00063006F006D0020004C00540044001403C9
:100DD00041007300740072006900620061006E00DF
:100DE0006B001203530065007200690061006C0023
:100DF0004E006F000A0346005000470041002603E2
:100E00004D0061006E00610067006D0065006E00BE
:100E10007400500072006F0063006500730073007F
:060E20006F0072000000EB
:050CF4000300000000F8
:1010DC0041E0360041E0B50042E0B0000041E037AD
:1010EC0000021BE0840218E07843E0B20000004DDF
:0F10FC00E038383736324D502020202020200099
:101C19008B518A528953E5561556AE5570021555A2
:101C29004E6014AB510553E553AA52700205521484
:081C3900F9ED12070980DF221A
:101A8E008B518A528953E5581558AE577002155727
:101A9E004E6026AB540556E556AA557002055514F0
:101AAE00F91206C3FFAB510553E553AA5270020556
:0A1ABE005214F9EF12070980CD223F
:101C6900E490E670F075B5E653B5EE43B28053B231
:101C7900F4A2B53390E0B5F0C2B3C2B67F327E00AC
:061C8900121CAFD2B622CE
:101D3000538EF75389FB5389F74389015389FDE497
:071D4000F58AF58CD2A922FF
:101701008C438D44AA06A9077554018A55895675DB
:10171100570075581C7B017AE0794B121A8E90E0C4
:1017210063E0FCA3E0FDA3E0FEA3E064D1FFEE646F
:101731008DFEED644CFDEC6449FC90E0631207E51D
:101741007EE07F4B7D1C7C0012124A7EE07F4B7B4A
:101751001C7A00AD44AC431212FE7D1C7C00AF44E8
:10176100AE431210157D1C7C00AF44AE43021AFE3D
:0818E9008E438F448C458D46AF
:1018F100C207120012BF5004D207803BE4F547F53E
:1019010048E5462548F582E5453547F583E0FFE59D
:10191100442548F582E5433547F583E0B5070E05D3
:1019210048E548700205476410454770D4E54864AE
:091931001045477002D207A2071D
:01193A00228A
:100E26001200128F40E4F544F545AD45AC44120C72
:100E36005374682545F582E434E0F583E541F00511
:100E460045E54570020544C39408E54464809480F2
:100E560040D890E068E0B4C0087542007543088049
:100E66000675421D754336754400754508C3E5454C
:100E76009410E544648094805023120C4F746825C6
:100E860045F582E434E0F583E541F00545E5457036
:100E96000205440543E54370D4054280D07541FF01
:100EA60075421D754319754400754510C3E5459493
:100EB6002CE544648094805033E540B4510E7B00A9
:100EC6007A007941AD43AC42FF120C5B746825454C
:100ED600F582E434E0F583E541F00545E545700229
:100EE60005440543E54370C4054280C075421D753F
:100EF600433EE4F541F544F545C3E5459406E5442E
:100F060064809480502FE540B4510A90E068E0B4C4
:100F1600C203120C4F74452545F582E434E0F5838F
:100F2600E541F00545E545700205440543E5437096
:0F0F3600C8054280C490E068E0B4C20374C0F004
:010F45002289
:0A17D7008E438F448B458A468947F4
:1017E1007E00E5442DF54CEE3543F54B1200128F8A
:1017F10048E5486451600BC3E5449410E543940007
:10180100503585434985444AC3E54A954CE5499598
:101811004B5024AB45AA46A947AD4AAC49AF481243
:101821001606054AE54A7002054974012547F54740
:07183100E43546F54680D1C5
:01183800228D
:061689008B408A418942FA
:10168F00D2067554017555E0755668755700755833
:10169F00107B017AE07994121A8EE5422410F9E456
:1016AF003541854054F555895675570075581C7B43
:1016BF00017AE079A4121A8E7EE07F947CE07D1A85
:1016CF001217017EE07F1AE542241CF9E43541FC34
:1016DF00AD011218E95016AB40E5422410F9E4357C
:1016EF0041FA7D1C7F197E1D1217D78002C206A2F8
:0116FF0006E4
:0117000022C6
:100F46007F03121BEEEF2402FFE43EA90775400162
:100F5600F541894290E069E0FFE50C2408F582E45A
:100F6600350BF583EFF090E06AE0FFE50C2409F518
:100F760082E4350BF583EFF090E06BE0FFE50C249F
:100F86000AF582E4350BF583EFF090E06CE0FFE5BF
:100F96000C240BF582E4350BF583EFF090E06DE061
:100FA600FFE50C240CF582E4350BF583EFF090E0B9
:100FB6006EE0FFE50C240DF582E4350BF583EFF0CA
:100FC6007F087E00E4FDEDC39408502874682FF571
:100FD60082E434E0F583E0FCAB40AA41A94275F017
:100FE60002EDA4F58285F083EC12071B0D0FBF00FE
:100FF600010E80D2E5192404F582E43518F583E064
:0E10060030E0047F0180027F0090E036EFF0C2
:0110140022B9
:10198500AE0790E06BE02EFFE50C240AF582E43506
:101995000BF583EFF0E50C240BF582E4350BF583AD
:1019A500E0FEE50C240AF582E4350BF583E0FDED58
:1019B500FF90E0B0EEF0A3EFF0D206121B6590E6C3
:0519C50080E054F7F082
:0119CA0022FA
:1014550090E600E054E74410F090E60174C0F09087
:10146500E6107420F000000090E611F000000090F6
:10147500E6047480F0000000740FF0000000E4F052
:1014850000000090E6187410F0000000E490E619E2
:10149500F000000090E61A7408F0000000E490E601
:1014A5001BF000000090E6497482F0000000F00097
:1014B500000090E6247402F0000000E490E625F0B8
:1014C50000000090E6957480F0000000F000000038
:1014D50043AF017B017AE07914755500755606E432
:0414E500FD021C19CF
:061CA900D2877F0A7E00D5
:101CAF007C007D1812073DEF1FAC0670011E4C70B3
:021CBF00F6220B
:0A1892008E408F418B428A43894447
:10189C00E4F545F546C3E5469541E5459540503B95
:1018AC00AB42AA43A9448546828545831206DCFFD8
:1018BC00E4FBFAC2B2EF1392B7EFC313FFD2B20B31
:1018CC00BB00010AEB64084A70E9C2B220B002C343
:0C18DC00220546E54670BE054580BAD3E3
:0118E80022DD
:101CC10090E60174C0F0C2B67F967E00121CAFD2BE
:081CD100B67F327E00021CAF59
:101D7300D2B1121CA9C2B1121CABC2877F0A7E006A
:031D8300021CAF90
:021A1100AB0721
:101A1300E4F9FAEBC413131354011392B17F027E5A
:101A230000121CAFD2877F057E00121CAFE925E0B0
:101A3300FFA283E4334FF97F057E00121CAFEB2531
:0D1A4300E0FBC287121CAB0ABA08C8AF0155
:011A50002273
:06193B008B548A55895609
:10194100A2AFE433F55C121D73E4F55BE55BC3956F
:101951005A5027AB54AA55A956855B82758300124C
:1019610006DCFF121A11AB57AA58A959855B82757B
:101971008300EF12071B055B80D2120036E55C2461
:03198100FF92AF23
:011984002240
:0B003600C2B1121CAB121CA9D2B122F7
:101C8F0075408F8F4175570075580075594A755AB1
:0A1C9F00027B007A00794002193B35
:101B340078407C007D007BFF7A0C79F47E007F0581
:101B440012069D30B41575570075580075594075C7
:101B54005A057B007A00794012193BE5425401FF93
:011B6400225E
:100AE0007540007541007542007544017545E0751B
:100AF00046007547017548E0754908E4FFF5507BED
:100B0000017AE07900F555755608FD121C19AB44C1
:100B1000AA45A9467401120709E4F54FE54FC454EC
:100B2000F0AB44AA45A94690000112071B85475720
:100B3000854858854959755A0812193BAB47AA4848
:100B4000A9499000021206DCFF530770EF24E06011
:100B50001B24F0602A24F0603C24F0604E24407096
:100B6000607540018518418519428024E5192401EA
:100B7000FDE43518A905754001F54189428011E56C
:100B8000192402FDE43518A905754001F541894293
:100B90007550088035E5192403FDE43518A905755D
:100BA0004001F5418942755004801FE5192405FD77
:100BB000E43518A905754001F541894275509880C2
:100BC00009754000754100754200E54145424540C8
:100BD0006022AB40AA41A9421206C3FED395504001
:100BE00006AD50AE0580008E431206C3C395431276
:100BF0000709800BEF70047E0180027E008E437433
:100C00004A254FF8A643054FE54FC394055003020C
:100C10000B1CAB44AA45A9467488120709AB44E5EE
:100C2000462401F9E43545FA7554007555007556AA
:100C30004A755700755805121A8E854757854858CA
:0F0C4000854959755A08AB44AA45A94602193B84
:101839008F4090E0B0E0FEA3E054F064607003EEE6
:10184900641160037F012290E036E070037F0F226C
:10185900E5407003308108E540B401062080037F2C
:10186900102290E0B5E0B540037F0122E4F511D2E2
:1018790006121B65AF4090E0B5EFF024FF92B590DA
:09188900E680E054F7F07F002234
:04000E0090FC04F06E
:1000120090E678E0541824F06008240870087F50B5
:0800220080067F518002E4FF1B
:01002A0022B3
:0C0C4F00AD43AC427B007A007941AF401D
:0C0C5B008F468C478D488B498A4A894B94
:100C6700E4F54CF54D754E03FDF54FF550A2AF3346
:100C7700F551E54624AF600D047012754C00754DB3
:100C8700017D018008754C00754D02E4FDE5466065
:100C970051E54D454C604BE54790E0B2F0E548A380
:100CA700F074B22DF582E434E0AD82FCAB4DAF4673
:100CB700121771754F008F507F0A7E001219CBE50E
:100CC70050454F60107CE07D677B01AF461213B043
:100CD700754F008F5090E067E0AB49AA4AA94B12C5
:0C0CE7000709E55124FF92AFAE4FAF505B
:010CF30022DE
:0C1606008F4D8C4E8D4F8B508A518952B5
:10161200E4F553F554755503FDF556F557A2AF336E
:10162200F558E54D24AF600D0470127553007554E2
:10163200027D018008755300755403E4FDE54D6099
:101642003BE55445536035E54E90E0B2F0E54FA3DB
:10165200F0AB50AA51A9521206C390E0B4F074B292
:101662002DF582E434E0AD82FCAB54AF4D1217711C
:101672007556008F577F0A7E001219CBE55824FF5A
:0616820092AFAE56AF5717
:01168800223F
:10005600E4F532F533F536F53BF53CF53DF53EE591
:10006600AA548460030205CC90E694E0FE90E695DF
:10007600E0FBEEF53BEBF53CC39405E53B94004015
:100086000790F404E0FD80027DFFED1207F100CE3B
:100096000102A60502ED07034C0903B00B011C0E75
:1000A60000E40F01811102411305162503D731041F
:1000B6002D32044034048835049F3604BC3703BD12
:1000C6004503CC470000054C75320075330790FC9C
:1000D600047481F0A37414F0E4A3F002056F7F0F9B
:1000E600121C8F75320075330690FC047480F0E4A0
:1000F600A3F0753605F511FE74002536F9EE34F4D5
:10010600FA7B01121689400690FC05740EF0120E59
:10011600267F8F0202A07F0E121C8F753200753368
:1001260005748E12000E8F3EE53E64516019E53E61
:100136006450601375320075330690FC047480F0C9
:10014600A3740BF002056F120E2674002533F974A2
:10015600FC3532FA7B01C0038B547555E075566841
:1001660075570075582CD003121A8E742C2533F54A
:1001760033E43532F5327F8E0202A07532007533D4
:100186000790FC047491F090E678E090FC05F0305E
:10019600B4047F0180027F0090FC06EFF074002516
:1001A60033F974FC3532FA7B01755500755612E445
:1001B600FD121C1974002533F974FC3532FA7B01E3
:1001C600C0038B547555E07556387557007558063B
:1001D600D003121A8E74062533F533E43532F53220
:1001E600FE74002533F974FC3EFA7B01C0038B5480
:1001F6007555E0755614755700755806D003121AD2
:100206008E74062533F533E43532F532FE74002557
:1002160033F974FC3EFA7B01C0038B547555E075C7
:100226005645755700755806D003121A8E74062562
:1002360033F533E43532F53202056F7F13121C8F26
:1002460075320075331D749312000E8F3E75391D7D
:10025600753A00753700753805D3E53A9418E539CF
:10026600941D5034E53EB4510E7B007A00793FADC3
:100276003AAC39FF120C5B74002538F58274FC35F4
:1002860037F583E53FF0053AE53A7002053905385A
:10029600E53870C5053780C17F93121C8F02056F44
:1002A60075320075330690FC047480F0E4A3F09078
:1002B600F405E090E037F0E014702A30B01E121C0E
:1002C600C17554017555F47556067557007558066F
:1002D6007B017AE07914121A8E02056F90FC057480
:1002E60001F00203A8805675320075330690FC04AF
:1002F6007480F0E4A3F0753607AF36FEC3E53C9F85
:10030600F535E53B9EF53490E037E014702F20B0CC
:100316000330B42074002FF974F43EFA7B01AF3534
:10032600AE341218925004E402049890FC05740C42
:10033600F002056F90FC057402F002056F90FC0553
:100346007403F002056F75320075330690FC047471
:1003560080F0E4A3F090E037E014704030B43590BC
:10036600E6017403F07F647E00121CAF120E267E37
:10037600E07F687CE07DB61217017EE07FB6AD1C9B
:10038600AC1B1218E95005120AE0801690FC0574A1
:100396000EF0800E90FC05740DF0800690FC05743E
:1003A60003F0E490E037F002056FE4F532F5337FB1
:1003B6000212198502056F120E26120F46E4FF126D
:1003C6001839E4FF80027F01121985121CC102054B
:1003D6006F75320075330690FC047480F0E4A3F068
:1003E60090F405E0F53DE4F511E53D64016004E5B2
:1003F6003D703290E0B0E0FEA3E054F0646070031C
:10040600EE64116002807290E036E070028058E57A
:10041600116401600AE511700C121B34EF60068549
:100426003D1102056F805275320075330690FC044B
:1004360074B2F0A3E511F002056F7532007533064C
:1004460090FC047480F0E4A3F090F405E0F53DFF21
:10045600121839EF24F1600F1460152410701AE495
:10046600F532F53302056F90FC05740FF002056F47
:1004760090FC057410F002056F90FC057401F00203
:10048600056F75320075330690FC0474B5F090E084
:10049600B5E090FC05F002056F75320075330690E5
:1004A600FC0474B6F0A280E43325E0FFA281E433B5
:1004B6004FA3F002056F853B32853C3390FC0474F4
:1004C600B7F0753605C3E53C9536F535E53B940042
:1004D600F53474002536F582E434F4F583E0648857
:1004E600700302056FAF367E0074002FF9EE34F408
:1004F600FA7B01C003C00174002FF9EE34FC8B5760
:10050600F558895985355AD001D00312193B8059BF
:1005160075320075330590FC0474A5F01200128F35
:100526003E7B007A00793FE4FDFC120C5B0533E567
:1005360033AE3270020532142400F58274FC3EF5A7
:1005460083E53FF0802375320075330690FC047412
:1005560080F0C3E53C9405E53B94005006A3740780
:10056600F0800690FC057406F090F404E0B4800474
:10057600A3E0701290F404E06405600FE064076085
:100586000AE064096005E490E037F0E5334532603F
:100596002CE533FD90FC00F0E532FFA3F090F40269
:1005A600E090FC02F090F403E090FC03F090E69CEF
:1005B600EFF000000090E69DEDF000000090E6955B
:0605C6007480F00000004B
:0105CC00220C
:02004100D322C8
:0800030090E6BAE0F51DD322DE
:101D860090E740E51DF0E490E68AF090E68B04F0DB
:021D9600D32256
:08002B0090E6BAE0F51AD322B9
:101D980090E740E51AF0E490E68AF090E68B04F0CC
:021DA800D32244
:101C410090E6B9E0242F600D04701990E604E0FFDE
:101C5100430780800890E604E0FF53077F000000FF
:071C6100EFF08002D322C363
:011C68002259
:101CD900C0E0C083C082D2015391EF90E65D7401E8
:081CE900F0D082D083D0E0327C
:101D4700C0E0C083C0825391EF90E65D7404F0D089
:061D570082D083D0E032CF
:101D5D00C0E0C083C0825391EF90E65D7402F0D075
:061D6D0082D083D0E032B9
:101AC800C0E0C083C08285120D85130E850E828505
:101AD8000D83A37402F085090F850A10851082858D
:101AE8000F83A37407F05391EF90E65D7410F0D064
:061AF80082D083D0E03231
:101D1800C0E0C083C082D2035391EF90E65D74089F
:081D2800F0D082D083D0E0323C
:101A5100C0E0C083C08290E680E030E72085090DB8
:101A6100850A0E850E82850D83A37402F085120FFF
:101A7100851310851082850F83A37407F05391EFAE
:0D1A810090E65D7420F0D082D083D0E0327A
:0F1CF100000102020303040405050300000000C4
:06110B00011100010800C3
:03000B0002119649
:10119600C0E0C0F0C083C082C0D075D000C000C01F
:0D11A60001C002C003C004C005C006C007A0
:1011B30078217C007D007BFF7A1C79FB7E007F0514
:1011C30012069D90E0B5E0F526C204752700E508F8
:1011D300600415088056750805E5117004C2048083
:1011E30043A280308101B3500B3081047F008030F3
:1011F3007F01802C30B4157557007558007559213F
:10120300755A057B007A00792112193BE5235401B5
:10121300F527701090E0B5E060047F0080027F0145
:0C1223008F26D204300405AF26121839C3
:10122F00D007D006D005D004D003D002D001D00013
:0B123F00D0D0D082D083D0F0D0E032BD
:1014E900C203C200D202C201121C69121D301214B9
:1014F90055750B0D750C0075140D75151275090DC3
:10150900750A1C75120D75137085120F85131075E8
:10151900160D7517B4120E26120F46D2E843D820BD
:1015290090E668E04409F090E65CE0443DF0120082
:10153900127B007A007931E4FDFC120C5BE5316421
:10154900C26007E490E0B5F0C2B57F01121985D2F7
:10155900AFD28C538EF8C203C2AF120056D2AF304D
:1015690001051208B8C2013003EEC203121BC28082
:01157900E78A
:0B00460090E50DE030E402C322D3225D
:1008B80090E6B9E0700302097D1470030209F2247E
:1008C800FE7003020A6D24FB70030209771470039B
:1008D80002097114700302096514700302096B247C
:1008E800056003020ACC1200414003020AD890E6D0
:1008F800BBE024FE602714603E24FD6011146027CD
:1009080024067056E50B90E6B3F0E50C8042120021
:10091800465044E51490E6B3F0E5158033E50D90B4
:10092800E6B3F0E50E802985120F851310E50F90C8
:10093800E6B3F0E510801990E6BAE0FF121BEEAAC4
:1009480006A9077B01EA494B600DEE90E6B3F0EF8C
:1009580090E6B4F0020AD8020AC7020AC7121D9824
:10096800020AD812002B020AD8120003020AD8126F
:100978001D86020AD890E6B8E0247F601514601935
:1009880024027063A200E43325E0FFA202E4334F9F
:100998008041E490E740F0803F90E6BCE0547EFF61
:1009A8007E00E0D394807C0040047D0180027D00BD
:1009B800EC4EFEED4F24F1F582741C3EF583E49372
:1009C800FF3395E0FEEF24A1FFEE34E68F82F58336
:1009D800E0540190E740F0E4A3F090E68AF090E656
:1009E8008B7402F0020AD8020AC790E6B8E024FE27
:1009F800601624026003020AD890E6BAE0B4010542
:100A0800C200020AD8020AC790E6BAE0705590E61A
:100A1800BCE0547EFF7E00E0D394807C0040047DDF
:100A28000180027D00EC4EFEED4F24F1F582741C2E
:100A38003EF583E493FF3395E0FEEF24A1FFEE3407
:100A4800E68F82F583E054FEF090E6BCE054801314
:100A58001313541FFFE0540F2F90E683F0E0442057
:100A6800F0806D805A90E6B8E024FE601924027088
:100A78004E90E6BAE0B40104D200805490E6BAE0A1
:100A88006402604C803990E6BCE0547EFF7E00E052
:100A9800D394807C0040047D0180027D00EC4EFEF2
:100AA800ED4F24F1F582741C3EF583E493FF3395F2
:100AB800E0FEEF24A1FFEE34E68F82F583800D90EF
:100AC800E6A08008121C41500790E6A0E04401F01F
:070AD80090E6A0E04480F06D
:010ADF0022F4
:03003300020CF9C3
:040CF90053D8EF32AB
:101111006080E0D2292E43C9A2D87C013D3654A17A
:10112100ECF0061362A705F3C0C7738C98932BD913
:10113100BC4C82CA1E9B573CFDD4E01667426F1817
:101141008A17E512BE4EC4D6DA9EDE49A0FBF58EA3
:10115100BB2FEE7AA968799115B2073F94C2108925
:101161000B225F21807F5D9A5A903227353ECCE772
:10117100BFF79703FF1930B348A5B5D1D75E922ABF
:10118100AC56AAC64FB838D296A47DB676FC6BE2AF
:041191009C7404F155
:08124A008C458D46AB07AA0696
:10125200E4F547F548C3E5489546E5456480F8E579
:101262004764809840030212F9E54825E0FFE5470C
:1012720033FE74D22FF58274E03EF583E0FF7E00E8
:10128200AC45AD4612074F8C498D4AE54825E0FF33
:10129200E54733FE74D32FF58274E03EF583E0FF19
:1012A2007E00AC45AD4612074F8C4B8D4CE54A652E
:1012B2004C7004E549654B6030EB254AF582EA350E
:1012C20049F583E0F9EB254CF582EA354BF583E0ED
:1012D200FFEB254AF582EA3549F583EFF0EB254C21
:1012E200F582EA354BF583E9F00548E548600302EB
:0B12F200125705470212577E007F01D3
:0112FD0022CE
:0C12FE008E458F468C478D488A498B4AEC
:10130A00E54645456006E54845477004E4FEFF2288
:10131A00E4F54BF54CC3E54C954AE5496480F8E59C
:10132A004B648098507BE4F54DF54EE548254CF525
:10133A0082E547354BF583E4F0C3E54E954AE54926
:10134A006480F8E54D6480985049E54E254C24D2D6
:10135A00F582E434E0F583E0FFE546254EF582E5C3
:10136A0045354DF583E0FEEF8EF0A4FFE548254CA8
:10137A00F582E547354BF583E02FFFE548254CF527
:10138A0082E547354BF583EFF0054EE54E70AA0529
:10139A004D80A6054CE54C600302131F054B021352
:0513AA001F7E007F0121
:0113AF00221B
:101B94001206C3FF9000031206DC1207099000032B
:101BA400EF12071B9000021206DCFF9000011206E0
:0E1BB400DC90000212071B900001EF02071BDD
:081015008E458F468C478D4883
:10101D00E4F549F54AE548AE477802CEA2E713CE8E
:10102D0013D8F8FFC3E54A9FEE6480F8E549648064
:10103D009840030210D7E54AAE497802C333CE3348
:10104D00CED8F92546FFEE3545FAA9077B018B4B26
:10105D00F54C894D74D3254AF582E434E0F583E0EF
:10106D00541FFFE48F51F550F54FF54E121B94AB05
:10107D004BAA4CA94D1207ABC374209551F9F81228
:10108D000798C004C005C006C007A94D1207ABA93B
:10109D0051A801120785D003D002D001D000EF4B2B
:1010AD00FFEE4AFEED49FDEC48FCAB4BAA4CA94DB9
:1010BD001207CBAB4BAA4CA94D121B94054AE54A1E
:0E10CD00600302102205490210227E007F01FE
:0110DB0022F2
:101AFE00D3ED9410EC64809480402AED1D70011C8F
:101B0E00142FF582EE3CF583E0FB547F24D2F58250
:101B1E00E434E0F583E0F9540F2FF582E43EF583CB
:051B2E00E06BF080CB2C
:011B3300228F
:101BC20090E682E030E004E020E60B90E682E0302E
:101BD200E119E030E71590E680E04401F07F147EE1
:0C1BE200001219CB90E680E054FEF022C7
:101B650030060990E680E0440AF0800790E680E0C0
:101B75004408F07FDC7E051219CB90E65D74FFF01A
:0F1B850090E65FF05391EF90E680E054F7F02286
:1019CB008E598F5A90E600E054187012E55A240194
:1019DB00FFE43559C313F559EF13F55A801590E60B
:1019EB0000E05418FFBF100BE55A25E0F55AE559F6
:1019FB0033F559E55A155AAE59700215594E600513
:061A0B00121DAA80EE226C
:0613B0008C528D53AE07C4
:1013B600EB70037F012290E678E020E6F990E6786C
:1013C6007480F0EE25E0440190E679F090E678E04E
:1013D60030E0F990E678E020E26BE030E167BB01AF
:1013E6000790E678E04420F090E679E0F5541BEBB0
:1013F600603090E678E030E0F990E678E020E2456B
:10140600BB010790E678E04420F090E679E0FF051E
:1014160053E553AC527002055214F5828C83EFF0FB
:1014260080CC90E678E030E0F990E678E020E215AE
:1014360090E678E04440F090E679E0855382855264
:0E14460083F07F012290E678E04440F07F00C2
:011454002275
:1017710090E678E020E6F990E6787480F0EF25E0D5
:1017810090E679F090E678E030E0F990E678E020B4
:10179100E23AE030E136EBD3940040260DEDAE04A1
:1017A10070010C14F5828E83E090E679F01B90E6CF
:1017B10078E030E0F990E678E020E210E020E1D630
:1017C100800A90E678E04440F07F012290E678E0DC
:0517D1004440F07F0020
:0117D60022F0
:021BEE00A90745
:101BF000AE16AF178F828E83A3E064037017AD011A
:101C000019ED7001228F828E83E07C002FFDEC3E67
:081C1000FEAF0580DFE4FEFFDA
:011C180022A9
:101DAA007400F58690FDA57C05A3E582458370F94C
:011DBA002206
:0300000002157A6C
:0C157A00787FE4F6D8FD75815C0215C195
:1005CD00E709F608DFFA8046E709F208DFFA803E10
:1005DD0088828C83E709F0A3DFFA8032E309F608FD
:1005ED00DFFA8078E309F208DFFA807088828C8365
:1005FD00E309F0A3DFFA806489828A83E0A3F60819
:10060D00DFFA805889828A83E0A3F208DFFA804CF2
:10061D0080D280FA80C680D4806980F280338010C9
:10062D0080A680EA809A80A880DA80E280CA803332
:10063D0089828A83ECFAE493A3C8C582C8CCC583AA
:10064D00CCF0A3C8C582C8CCC583CCDFE9DEE7807A
:10065D000D89828A83E493A3F608DFF9ECFAA9F0F9
:10066D00EDFB2289828A83ECFAE0A3C8C582C8CC4F
:10067D00C583CCF0A3C8C582C8CCC583CCDFEADE68
:10068D00E880DB89828A83E493A3F208DFF980CCCA
:10069D0088F0EF60010E4E60C388F0ED2402B404C3
:1006AD000050B9F582EB2402B4040050AF2323456A
:0606BD00822390061D736C
:1006C300BB010689828A83E0225002E722BBFE0235
:0906D300E32289828A83E4932268
:1006DC00BB010CE58229F582E5833AF583E02250D3
:1006EC0006E92582F8E622BBFE06E92582F8E2221D
:0D06FC00E58229F582E5833AF583E4932237
:10070900BB010689828A83F0225002F722BBFE01CF
:02071900F322C9
:10071B00F8BB010DE58229F582E5833AF583E8F014
:10072B00225006E92582C8F622BBFE05E92582C8C0
:02073B00F222A8
:10073D00EF8DF0A4A8F0CF8CF0A428CE8DF0A42ED0
:02074D00FE228A
:10074F00C2D5EC30E709B2D5E4C39DFDE49CFCEEC5
:10075F0030E715B2D5E4C39FFFE49EFE120817C31E
:10076F00E49DFDE49CFC800312081730D507C3E419
:06077F009FFFE49EFE2234
:10078500E8600FECC313FCED13FDEE13FEEF13FF52
:03079500D8F12276
:10079800E8600FEFC333FFEE33FEED33FDEC33FCBF
:0307A800D8F12263
:1007AB00BB010789828A830208785005E9F80208A1
:1007BB006CBBFE05E9F802088489828A83020890E3
:1007CB00BB010789828A830207E55005E9F8020815
:0A07DB00A0BBFE05E9F80208AC22FD
:0C07E500ECF0A3EDF0A3EEF0A3EFF02287
:1007F100D083D082F8E4937012740193700DA3A397
:1008010093F8740193F5828883E4737402936860AA
:06081100EFA3A3A380DFAA
:101586000214E9E493A3F8E493A34003F68001F27E
:1015960008DFF48029E493A3F85407240CC8C33366
:1015A600C4540F4420C8834004F456800146F6DF35
:1015B600E4800B01020408102040809010DCE47ED9
:1015C600019360BCA3FF543F30E509541FFEE4932A
:1015D600A360010ECF54C025E060A840B8E493A3F1
:1015E600FAE493A3F8E493A3C8C582C8CAC583CA1C
:1015F600F0A3C8C582C8CAC583CADFE9DEE780BED4
:011195000059
:10081700BC000BBE0029EF8DF084FFADF022E4CCC5
:10082700F875F008EF2FFFEE33FEEC33FCEE9DEC8E
:10083700984005FCEE9DFE0FD5F0E9E4CEFD22EDD4
:10084700F8F5F0EE8420D21CFEADF075F008EF2F1E
:10085700FFED33FD4007985006D5F0F222C398FD0F
:050867000FD5F0EA22AC
:0C086C00E6FC08E6FD08E6FE08E6FF22B8
:0C087800E0FCA3E0FDA3E0FEA3E0FF22F3
:0C088400E2FC08E2FD08E2FE08E2FF22B0
:10089000E493FC740193FD740293FE740393FF22AE
:0C08A000ECF608EDF608EEF608EFF62284
:0C08AC00ECF208EDF208EEF208EFF22288
:00000001FF
