#
# $Id: USB_FW.201.hex 11453 2015-03-29 18:27:25Z dima $
#
:03004300021F0099
:03005300021F0089
:101F0000021E3100021E8E00021E7800021E4900D1
:081F1000021C2000021BA900C5
:101000001201000200000040AAAAAAAAAAAA01028C
:1010100003010A0600020000004001000902370037
:10102000020100C0000904000002FFFFFF040705E1
:101030000202000200070586020002000904010006
:1010400002FFFFFF050705040200020007058802F2
:10105000000200001201000200000040E4E451110F
:101060000000010203010A06000200000040010026
:1010700009023700020100C0320904000002FFFF2C
:10108000FF04070502024000000705860240000039
:101090000904010002FFFFFF0507050402400000EC
:1010A0000705880240000006040016001400120024
:1010B0000A00260004030904160358006F0072009A
:1010C00063006F006D0020004C00540044001403C6
:1010D00041007300740072006900620061006E00DC
:1010E0006B001203530065007200690061006C0020
:1010F0004E006F000A0346005000470041002603DF
:101100004D0061006E00610067006D0065006E00BB
:101110007400500072006F0063006500730073007C
:061120006F0072000000E8
:050FF6000300000000F3
:100F3C0041E0370041E0B60042E0B1000041E0384A
:100F4C0000021BE0850218E07943E0B30000004D7D
:0F0F5C00E03931313435314D2020202020200064
:101D71008B538A548955E5581558AE57700215573B
:101D81004E6014AB530555E555AA54700205541421
:081D9100F9ED12077780DF2253
:101BE6008B538A548955E55A155AAE5970021559C0
:101BF6004E6026AB560558E558AA5770020557148D
:101C0600F9120731FFAB530555E555AA5470020585
:0A1C16005414F9EF12077780CD2275
:101DC100D2B7E490E670F0F5B575B5E653B5E743E3
:101DD100B28853B2FCC2B3D2B1C2B2C2B67F32FE34
:061DE100121E07D2B6221B
:101E6100538EF75389FB5389F74389015389FDE465
:071E7100F58AF58CD2A922CD
:1018B2008C448D45AA06A9077556018A5789587521
:1018C2005900755A1C7B017AE0794C121BE690E0B4
:1018D20064E0FCA3E0FDA3E0FEA3E064D1FFEE64BC
:1018E2008DFEED644CFDEC6449FC90E064120853FB
:1018F2007EE07F4C7D1C7C001213707EE07F4C7B6F
:101902001C7A00AD45AC441214247D1C7C00AF450A
:10191200AE441211F57D1C7C00AF45AE44021C564C
:08183F008E448F458C468D4755
:10184700C20712001290E15BEFF0BF5004D207808D
:1018570057E490E15CF0A3F090E15CE0FEA3E0FFC9
:10186700C39410EE648094805030E5472FF582E5ED
:10187700463EF583E0FF90E15CE0FCA3E02545F5FB
:1018870082E5443CF583E0B5071090E15DE004F0A4
:1018970070C690E15CE004F080BE90E15CE070040B
:0A18A700A3E064107002D207A2074C
:0118B1002214
:020E12008F410E
:100E14001200128F42E4F546F547AD47AC46121472
:100E2400DA74692547F582E434E0F583E543F00597
:100E340047E54770020546C39408E54664809480FC
:100E440040D8E541600490E069F090E069E0B4C006
:100E540008754400754508800675441D754536754A
:100E64004600754708C3E5479410E54664809480BE
:100E740050231214D674692547F582E434E0F583CF
:100E8400E543F00547E547700205460545E545702D
:100E9400D4054480D07543FF75441D7545197546C6
:100EA40000754710C3E547942CE546648094805050
:100EB40033E542B4510E7B007A007943AD45AC442E
:100EC400FF1214E274692547F582E434E0F583E502
:100ED40043F00547E547700205460545E54570C4FE
:100EE400054480C075441D75453EE4F543F546F55B
:100EF40047C3E5479406E54664809480502FE54255
:100F0400B4510A90E069E0B4C2031214D6744625C1
:100F140047F582E434E0F583E543F00547E547709F
:100F24000205460545E54570C8054480C490E0695E
:070F3400E0B4C20374C0F039
:010F3B002293
:0A1988008E448F458B468A4789483C
:101992007E00E5452DF54DEE3544F54C1200128FD3
:1019A20049E5496451600BC3E5459410E544940050
:1019B200503585444A85454BC3E54B954DE54A95DF
:1019C2004C5024AB46AA47A948AD4BAC4AAF49128A
:1019D2001740054BE54B7002054A74012548F5484E
:0719E200E43547F54780D111
:0119E90022DB
:0617C7008B418A428943B8
:1017CD00D2067556017557E0755869755900755AE9
:1017DD00107B017AE07995121BE6E5432410F9E4BC
:1017ED003542854156F5578958755900755A0C7B08
:1017FD00017AE079A5121BE67EE07F957CE07D1AEB
:10180D001218B27EE07F1AE543241CF9E43542FC40
:10181D00AD0112183F5016AB41E5432410F9E435E4
:10182D0042FA7D1C7F197E1D1219888002C206A204
:01183D0006A4
:01183E002287
:101126007F03121D46EF2402FFE43EA90775410125
:10113600F542894390E06AE0FFE50C2408F582E475
:10114600350BF583EFF090E06BE0FFE50C2409F535
:1011560082E4350BF583EFF090E06CE0FFE50C24BC
:101166000AF582E4350BF583EFF090E06DE0FFE5DC
:101176000C240BF582E4350BF583EFF090E06EE07E
:10118600FFE50C240CF582E4350BF583EFF090E0D7
:101196006FE0FFE50C240DF582E4350BF583EFF0E7
:1011A6007F087E00E4FDEDC39408502874692FF58E
:1011B60082E434E0F583E0FCAB41AA42A94375F032
:1011C60002EDA4F58285F083EC1207890D0FBF00AE
:1011D600010E80D2E5192404F582E43518F583E082
:0E11E60030E0047F0180027F0090E037EFF0E0
:0111F40022D8
:101B250090E06CE02FFFE50C240AF582E4350BF517
:101B350083EFF0E50C240BF582E4350BF583E0FE2D
:101B4500E50C240AF582E4350BF583E0FDEDFF9005
:101B5500E0B1EEF0A3EFF0D206121CBD90E680E0F6
:041B650054F7F0221F
:1016200090E600E054E74410F090E60174C0F090BA
:10163000E6107420F000000090E611F00000009029
:10164000E6047480F0000000740FF0000000E4F085
:1016500000000090E6187410F0000000E490E61915
:10166000F000000090E61A7408F0000000E490E634
:101670001BF000000090E6497482F0000000F000CA
:10168000000090E6247402F0000000E490E625F0EB
:1016900000000090E6957480F0000000F00000006B
:1016A00043AF017B017AE07914755700755806E461
:0416B000FD021D71A9
:061E0100D2837F0A7E007F
:101E07007C007D181207ABEF1FAC0670011E4C70EB
:021E1700F622B1
:0A1A43008E418F428B438A4489458F
:101A4D00E4F546F547C3E5479542E54695415036E1
:101A5D00AB43AA44A94585478285468312074AFFB1
:101A6D00E4FBFAC2B2EF1392B1EFC313FFD2B20B84
:101A7D00BB00010AEB64084A70E9C2B20547E547AD
:071A8D0070C3054680BFD3C2
:011A9400222F
:101E190090E60174C0F0C2B67FC27E01121E07D2DD
:081E2900B67F327E00021E07A5
:101EA400D287121E01C287121E03C2837F0A7E00DC
:031EB400021E0704
:021B6900AB07C8
:101B6B00E4F9FAEBC413131354011392877F027E2B
:101B7B0000121E07D2837F057E00121E07E925E0A7
:101B8B00FFA2B3E4334FF97F057E00121E07EB254E
:0D1B9B00E0FBC283121E030ABA08C8AF01A6
:011BA800221A
:061A95008B558A568957AB
:101A9B00A2AFE433F55D121EA4E4F55CE55CC395DF
:101AAB005B5027AB55AA56A957855C8275830012EC
:101ABB00074AFF121B69AB58AA59A95A855C827554
:101ACB008300EF120789055C80D2120036E55D2496
:031ADB00FF92AFC8
:011ADE0022E5
:0B003600C287121E03121E01D2872297
:101DE70075418F8F42755800755900755A4B755B51
:0A1DF700027B007A007941021A9580
:101C8C0078417C007D007BFF7A0F79F67E007F0522
:101C9C0012070B30B415755800755900755A4175FB
:101CAC005B057B007A007941121A95E5435401FFDC
:011CBC002205
:100B4E007541007542007543007545017546E075A7
:100B5E0047007548017549E0754A08E4F551FFF5FF
:100B6E00527B017AE07900F557755808FD121D7118
:100B7E00AB45AA46A9477401120777E4F550E55034
:100B8E00C454F0AB45AA46A94790000112078985C7
:100B9E004858854959854A5A755B08121A95AB48CB
:100BAE00AA49A94A90000212074AFE5407FFEE54C2
:100BBE0070F55124E0602924F0604B24F0605D2430
:100BCE00F0606F24406003020C5675410185184297
:100BDE00851943EF24FE600624FE703B801C801FA7
:100BEE00E5192401FDE43518A905754101F5428981
:100BFE0043EF24FC60092402700A7552028052757C
:100C0E005206804D8011E5192402FDE43518A90520
:100C1E00754101F54289437552088035E519240363
:100C2E00FDE43518A905754101F542894375520455
:100C3E00801FE5192405FDE43518A905754101F558
:100C4E00428943755298800975410075420075437B
:100C5E0000E542454345416022AB41AA42A94312F9
:100C6E000731FED395524006AD52AE0580008E443C
:100C7E00120731C39544120777800CE55170047E3C
:100C8E000180027E008E44744B2550F8A644055018
:100C9E00E550C394055003020B8CAB45AA46A947F9
:100CAE007488120777AB45E5472401F9E43546FA17
:100CBE0075560075570075584B755900755A0512C3
:100CCE001BE6854858854959854A5A755B08AB45D8
:070CDE00AA46A947021A957E
:1019EA008F4190E0B1E0FEA3E054F064607003EE32
:1019FA00641160037F012290E037E070037F0F22B9
:101A0A00E5417003308108E541B401062080037F77
:101A1A00102290E0B6E0B541037F0122E4F511D22D
:101A2A0006121CBDAF4190E0B6EFF024FF92B590CC
:091A3A00E680E054F7F07F002281
:04000E0090FC04F06E
:1000120090E678E0541824F06008240870087F50B5
:0800220080067F518002E4FF1B
:01002A0022B3
:0C14D600AD45AC447B007A007943AF4286
:0C14E2008F488C498D4A8B4B8A4C894DF9
:1014EE00E4F54EF54F755003FDF551F552A2AF33AD
:1014FE00F553E54824AF600D047012754E00754F1C
:10150E00017D018008754E00754F02E4FDE54860CF
:10151E0051E54F454E604BE54990E0B3F0E54AA3E7
:10152E00F074B32DF582E434E0AD82FCAB4FAF48DE
:10153E001219227551008F527F0A7E00121ADFE5B2
:10154E0052455160107CE07D687B01AF4812157BDF
:10155E007551008F5290E068E0AB4BAA4CA94D122A
:0C156E000777E55324FF92AFAE51AF5257
:01157A00224E
:0C1740008F4E8C4F8D508B518A52895374
:10174C00E4F554F555755603FDF557F558A2AF332E
:10175C00F559E54E24AF600D0470127554007555A3
:10176C00027D018008755400755503E4FDE54E605B
:10177C003FE55545546039E54F90E0B3F0E550A393
:10178C00F0AB51AA52A95312073190E0B5F0C2B791
:10179C0074B32DF582E434E0AD82FCAB55AF4E1240
:1017AC0019227557008F587F0A7E00121ADFD2B7A4
:0A17BC00E55924FF92AFAE57AF5875
:0117C6002200
:10005600E4F531F532F535F53CF53DF53EF53FE590
:10006600AA5484600302063A90E694E0FE90E69570
:10007600E0FBEEF53CEBF53DC39405E53C94004012
:100086000790F404E0FD80027DFFED12085F00CECC
:100096000102C30503080703580903D80B011E0E06
:1000A60000E40F019411025E130541250401310499
:1000B6005732046A3404B23504C93604E63703E518
:1000C6004503F647000005BA75310075320790FC06
:1000D600047481F0A37414F0E4A3F00205DD7F0F2D
:1000E600121DE775310075320690FC047480F0E449
:1000F600A3F0753505F511FE74002535F9EE34F4D7
:10010600FA7B011217C7400690FC05740EF0E4FF57
:10011600120E127F8F0202BD7F0E121DE77531008F
:10012600753205748E12000E8F3F7B007A0079407F
:10013600E4FDFC1214E2E53F64516019E53F6450AA
:10014600601375310075320690FC047480F0A37458
:100156000BF00205DD90E0B7E0FF120E12740025E9
:1001660032F974FC3531FA7B01C0038B567557E0C2
:10017600755869755900755A2CD003121BE6742CF4
:100186002532F532E43531F5317F8E0202BD753107
:100196000075320790FC047491F090E678E090FCCC
:1001A60005F030B3047F0280027F0030B4047E0184
:1001B60080027E00EE4F90FC06F074002532F97442
:1001C600FC3531FA7B01755700755812E4FD121D96
:1001D6007174002532F974FC3531FA7B01C0038B4A
:1001E600567557E0755839755900755A06D0031279
:1001F6001BE674062532F532E43531F531FE74001E
:100206002532F974FC3EFA7B01C0038B567557E024
:10021600755814755900755A06D003121BE67406F4
:100226002532F532E43531F531FE74002532F974A4
:10023600FC3EFA7B01C0038B567557E07558467530
:100246005900755A06D003121BE674062532F5329C
:10025600E43531F5310205DD7F13121DE7753100F6
:1002660075321D749312000E8F3F75381D75390057
:10027600753600753705D3E5399418E538941D5061
:1002860034E53FB4510E7B007A007940AD39AC3885
:10029600FF1214E274002537F58274FC3536F583B7
:1002A600E540F00539E539700205380537E5377060
:1002B600C5053680C17F93121DE70205DD75310045
:1002C60075320690FC047480F0E4A3F090F405E027
:1002D60090E038F0E0147071121E1930B31B755699
:1002E600017557F4755806755900755A067B017ADB
:1002F600E07914121BE60205DD90FC057401F0029C
:1003060003D075310075320690FC047480F0E4A3C6
:10031600F0753507AF35FEC3E53D9FF534E53C9EE8
:10032600F53390E038E014702074002FF974F43E31
:10033600FA7B01AF34AE33121A435004E40204C20E
:1003460090FC05740CF00205DD90FC057403F002C8
:1003560005DD75310075320690FC047480F0E4A367
:10036600F090E038E014705CE4FFFE20B411C2B2F5
:10037600D2B1D2B20FBF00010EEF640A4E70EC305C
:10038600B43A90E6017403F07F647E00121E079073
:10039600E0B7E0FF120E127EE07F697CE07DB812C6
:1003A60018B27EE07FB8AD1CAC1B12183F50051288
:1003B6000B4E801690FC05740EF0800E90FC0574B2
:1003C6000DF0800690FC057403F0E490E038F0022E
:1003D60005DDE4F531F5327F02121B250205DDE469
:1003E600FF120E12121126E4FF1219EAE4FF800230
:1003F6007F01121B25121E190205DD7531007532AB
:100406000690FC047480F0E4A3F090F405E0F53E59
:10041600E4F511E53E64016004E53E703290E0B11A
:10042600E0FEA3E054F064607003EE6411600280A5
:100436007290E037E070028058E5116401600AE5C9
:1004460011700C121C8CEF6006853E110205DD80D2
:100456005275310075320690FC0474B2F0A3E511B2
:10046600F00205DD75310075320690FC047480F0EB
:10047600E4A3F090F405E0F53EFF1219EAEF24F14B
:10048600600F1460152410701AE4F531F532020578
:10049600DD90FC05740FF00205DD90FC057410F08C
:1004A6000205DD90FC057401F00205DD753100756D
:1004B600320690FC0474B5F090E0B6E090FC05F0CE
:1004C6000205DD75310075320690FC0474B6F0A2A3
:1004D60080E43325E0FFA281E4334FA3F00205DD7B
:1004E600853C31853D3290FC0474B7F0753505C303
:1004F600E53D9535F534E53C9400F5337400253536
:10050600F582E434F4F583E0648870030205DDAF18
:10051600357E0074002FF9EE34F4FA7B01C003C077
:100526000174002FF9EE34FC8B58F559895A85343D
:100536005BD001D003121A950205DD7531007532C4
:100546000590FC0474A5F01200128F3F7B007A0020
:100556007940E4FDFC1214E290E036E0FF0532E556
:1005660032AC3170020531142400F58274FC3CF57E
:1005760083EFF090E0B7E0FF0532E532AC31700270
:100586000531142400F58274FC3CF583EFF0053246
:10059600E532AE3170020531142400F58274FC3E5A
:1005A600F583E540F090E6017403F07F647E001267
:1005B6001E07802375310075320690FC047480F0A6
:1005C600C3E53D9405E53C94005006A37407F0800E
:1005D6000690FC057406F090F404E0B48004A3E0F1
:1005E600701290F404E06405600FE06407600AE0AE
:1005F60064096005E490E038F0E5324531602CE5A9
:1006060032FD90FC00F0E531FFA3F090F402E0909B
:10061600FC02F090F403E090FC03F090E69CEFF00F
:1006260000000090E69DEDF000000090E6957480D5
:04063600F0000000D0
:01063A00229D
:02004100D322C8
:0800030090E6BAE0F51DD322DE
:101ECA0090E740E51DF0E490E68AF090E68B04F096
:021EDA00D32211
:08002B0090E6BAE0F51AD322B9
:101EDC0090E740E51AF0E490E68AF090E68B04F087
:021EEC00D322FF
:101D990090E6B9E0242F600D04701990E604E0FF85
:101DA900430780800890E604E0FF53077F000000A6
:071DB900EFF08002D322C30A
:011DC0002200
:101E3100C0E0C083C082D2015391EF90E65D74018E
:081E4100F0D082D083D0E03222
:101E7800C0E0C083C0825391EF90E65D7404F0D057
:061E880082D083D0E0329D
:101E8E00C0E0C083C0825391EF90E65D7402F0D043
:061E9E0082D083D0E03287
:101C2000C0E0C083C08285120D85130E850E8285AB
:101C30000D83A37402F085090F850A108510828533
:101C40000F83A37407F05391EF90E65D7410F0D00A
:061C500082D083D0E032D7
:101E4900C0E0C083C082D2035391EF90E65D74086D
:081E5900F0D082D083D0E0320A
:101BA900C0E0C083C08290E680E030E72085090D5F
:101BB900850A0E850E82850D83A37402F085120FA6
:101BC900851310851082850F83A37407F05391EF55
:0D1BD90090E65D7420F0D082D083D0E03221
:101EB700000102020303040405050300000000C03B
:031EC700C2000056
:060F6B0001110001080065
:03000B000212BC22
:1012BC00C0E0C0F0C083C082C0D075D000C000C0F8
:0D12CC0001C002C003C004C005C006C00779
:1012D90078217C007D007BFF7A1E79C17E007F0525
:1012E90012070B90E0B6E0F526C204752700E50861
:1012F900600415088056750805E5117004C204805C
:1013090043A280308101B3500B3081047F008030CB
:101319007F01802C30B415755800755900755A2114
:10132900755B057B007A007921121A95E523540132
:10133900F527701090E0B6E060047F0080027F011D
:0C1349008F26D204300405AF261219EAEA
:10135500D007D006D005D004D003D002D001D000EC
:0B136500D0D0D082D083D0F0D0E03296
:100CE50078567CE17D017BFF7A1E79C67E007F0404
:100CF50012070BC203C200D202C201121DC1121E8D
:100D050061121620750B10750C00751410751512EF
:100D1500750910750A1C75121075137085120F85EB
:100D250013107516107517B412001290E154EFF0F8
:100D35007B017AE17955E4FDFC1214E290E155E07E
:100D4500FF90E036F0E490E0B7F0EF64C26059EF51
:100D550064C06054E490E15AF090E15AE0FFC39416
:100D650004504A74562FF582E434E1F583E0FF60C0
:100D75003C120E127EE07F697CE07DB81218B27ECF
:100D8500E07FB8AD1CAC1B12183F501490E15AE03F
:100D95002456F582E434E1F583E090E0B7F0800D68
:100DA50090E15AE004F080B1E4FF120E1212112610
:100DB500D2E843D82090E668E04409F090E65CE08C
:100DC500443DF012001290E154EFF07B017AE17995
:100DD50055E4FDFC1214E290E155E064C26007E4BD
:100DE50090E0B6F0C2B57F01121B25D2AFD28C536D
:100DF5008EF8C203C2AF120056D2AF3001051209F8
:0D0E050026C2013003EEC203121D1A80E761
:0B00460090E50DE030E402C322D3225D
:1009260090E6B9E070030209EB147003020A602432
:10093600FE7003020ADB24FB70030209E514700350
:100946000209DF1470030209D31470030209D924C3
:10095600056003020B3A1200414003020B4690E683
:10096600BBE024FE602714603E24FD60111460275E
:1009760024067056E50B90E6B3F0E50C80421200B3
:10098600465044E51490E6B3F0E5158033E50D9046
:10099600E6B3F0E50E802985120F851310E50F905A
:1009A600E6B3F0E510801990E6BAE0FF121D46AAFC
:1009B60006A9077B01EA494B600DEE90E6B3F0EF1E
:1009C60090E6B4F0020B46020B35020B35121EDC24
:1009D600020B4612002B020B46120003020B4612B4
:1009E6001ECA020B4690E6B8E0247F601514601913
:1009F60024027063A200E43325E0FFA202E4334F31
:100A06008041E490E740F0803F90E6BCE0547EFFF2
:100A16007E00E0D394807C0040047D0180027D004E
:100A2600EC4EFEED4F24B7F582741E3EF583E4933B
:100A3600FF3395E0FEEF24A1FFEE34E68F82F583C7
:100A4600E0540190E740F0E4A3F090E68AF090E6E7
:100A56008B7402F0020B46020B3590E6B8E024FEDA
:100A6600601624026003020B4690E6BAE0B4010564
:100A7600C200020B46020B3590E6BAE0705590E6CE
:100A8600BCE0547EFF7E00E0D394807C0040047D71
:100A96000180027D00EC4EFEED4F24B7F582741EF8
:100AA6003EF583E493FF3395E0FEEF24A1FFEE3499
:100AB600E68F82F583E054FEF090E6BCE0548013A6
:100AC6001313541FFFE0540F2F90E683F0E04420E9
:100AD600F0806D805A90E6B8E024FE60192402701A
:100AE6004E90E6BAE0B40104D200805490E6BAE033
:100AF6006402604C803990E6BCE0547EFF7E00E0E4
:100B0600D394807C0040047D0180027D00EC4EFE83
:100B1600ED4F24B7F582741E3EF583E493FF3395BB
:100B2600E0FEEF24A1FFEE34E68F82F583800D9080
:100B3600E6A08008121D99500790E6A0E04401F057
:070B460090E6A0E04480F0FE
:010B4D002285
:03003300020FFBBE
:040FFB0053D8EF32A6
:100F71006080E0D4292E43C9A2D87C013D3654A11A
:100F8100ECF0061362A705F3C0C7738C98932BD9B5
:100F9100BC4C82CA1E9B573CFDD4E01667426F18B9
:100FA1008A17E512BE4EC4D6DA9EDE49A0FBF58E45
:100FB100BB2FEE7AA968799115B2073F94C21089C7
:100FC1000B225F21807F5D9A5A903227353ECCE714
:100FD100BFF79703FF1930B348A5B5D1D75E922A61
:100FE100AC56AAC64FB838D296A47DB676FC6BE251
:040FF1009C7404F1F7
:081370008C468D47AB07AA066D
:10137800E4F548F549C3E5499547E5466480F8E54D
:1013880048648098400302141FE54925E0FFE548BA
:1013980033FE74D42FF58274E03EF583E0FF7E00BF
:1013A800AC46AD471207BD8C4A8D4BE54925E0FF99
:1013B800E54833FE74D52FF58274E03EF583E0FFEF
:1013C8007E00AC46AD471207BD8C4C8D4DE54B6594
:1013D8004D7004E54A654C6030EB254BF582EA35E3
:1013E8004AF583E0F9EB254DF582EA354CF583E0C3
:1013F800FFEB254BF582EA354AF583EFF0EB254DF7
:10140800F582EA354CF583E9F00549E549600302C0
:0B141800137D054802137D7E007F015C
:0114230022A6
:0C1424008E468F478C488D498A4A8B4BBE
:10143000E54745466006E54945487004E4FEFF225D
:10144000E4F54CF54DC3E54D954BE54A6480F8E570
:101450004C648098507BE4F54EF54FE549254DF5F9
:1014600082E548354CF583E4F0C3E54F954BE54AFA
:101470006480F8E54E6480985049E54F254D24D4AA
:10148000F582E434E0F583E0FFE547254FF582E59A
:1014900046354EF583E0FEEF8EF0A4FFE549254D7D
:1014A000F582E548354CF583E02FFFE549254DF5FC
:1014B00082E548354CF583EFF0054FE54F70AA05FE
:1014C0004E80A6054DE54D6003021445054C0214FF
:0514D000457E007F01D4
:0114D50022F4
:101CEC00120731FF90000312074A12077790000386
:101CFC00EF12078990000212074AFF9000011207A9
:0E1D0C004A900002120789900001EF02078939
:0811F5008E468F478C488D499E
:1011FD00E4F54AF54BE549AE487802CEA2E713CEA9
:10120D0013D8F8FFC3E54B9FEE6480F8E54A648080
:10121D009840030212B7E54BAE4A7802C333CE3382
:10122D00CED8F92547FFEE3546FAA9077B018B4C41
:10123D00F54D894E74D5254BF582E434E0F583E008
:10124D00541FFFE48F52F551F550F54F121CECABC6
:10125D004CAA4DA94E120819C374209552F9F812D3
:10126D000806C004C005C006C007A94E120819A97A
:10127D0052A8011207F3D003D002D001D000EF4BDA
:10128D00FFEE4AFEED49FDEC48FCAB4CAA4DA94ED4
:10129D00120839AB4CAA4DA94E121CEC054BE54B6F
:0E12AD006003021202054A0212027E007F0157
:0112BB002210
:101C5600D3ED9410EC64809480402AED1D70011C35
:101C6600142FF582EE3CF583E0FB547F24D4F582F5
:101C7600E434E0F583E0F9540F2FF582E43EF58372
:051C8600E06BF080CBD3
:011C8B002236
:101D1A0090E682E030E004E020E60B90E682E030D4
:101D2A00E119E030E71590E680E04401F07F147E87
:0C1D3A0000121ADF90E680E054FEF02258
:101CBD0030060990E680E0440AF0800790E680E067
:101CCD004408F07FDC7E05121ADF90E65D74FFF0AC
:0F1CDD0090E65FF05391EF90E680E054F7F0222D
:101ADF008E5A8F5B90E600E054187012E55B24017C
:101AEF00FFE4355AC313F55AEF13F55B801590E6F3
:101AFF0000E05418FFBF100BE55B25E0F55BE55ADE
:101B0F0033F55AE55B155BAE5A7002155A4E6005F8
:061B1F00121EEE80EE2212
:06157B008C548D55AE07F3
:10158100EB70037F012290E678E020E6F990E6789F
:101591007480F0EE25E0440190E679F090E678E081
:1015A10030E0F990E678E020E26BE030E167BB01E2
:1015B1000790E678E04420F090E679E0F5561BEBE1
:1015C100603090E678E030E0F990E678E020E2459E
:1015D100BB010790E678E04420F090E679E0FF0552
:1015E10055E555AC547002055414F5828C83EFF027
:1015F10080CC90E678E030E0F990E678E020E215E2
:1016010090E678E04440F090E679E0855582855493
:0E16110083F07F012290E678E04440F07F00F5
:01161F0022A8
:1019220090E678E020E6F990E6787480F0EF25E022
:1019320090E679F090E678E030E0F990E678E02001
:10194200E23AE030E136EBD3940040260DEDAE04EE
:1019520070010C14F5828E83E090E679F01B90E61C
:1019620078E030E0F990E678E020E210E020E1D67D
:10197200800A90E678E04440F07F012290E678E029
:051982004440F07F006D
:01198700223D
:021D4600A907EB
:101D4800AE16AF178F828E83A3E064037017AD01C0
:101D580019ED7001228F828E83E07C002FFDEC3E0E
:081D6800FEAF0580DFE4FEFF81
:011D70002250
:101EEE007400F58690FDA57C05A3E582458370F907
:011EFE0022C1
:030000000216B431
:0C16B400787FE4F6D8FD75815D0216FB1E
:10063B00E709F608DFFA8046E709F208DFFA803EA1
:10064B0088828C83E709F0A3DFFA8032E309F6088E
:10065B00DFFA8078E309F208DFFA807088828C83F6
:10066B00E309F0A3DFFA806489828A83E0A3F608AA
:10067B00DFFA805889828A83E0A3F208DFFA804C84
:10068B0080D280FA80C680D4806980F2803380105B
:10069B0080A680EA809A80A880DA80E280CA8033C4
:1006AB0089828A83ECFAE493A3C8C582C8CCC5833C
:1006BB00CCF0A3C8C582C8CCC583CCDFE9DEE7800C
:1006CB000D89828A83E493A3F608DFF9ECFAA9F08B
:1006DB00EDFB2289828A83ECFAE0A3C8C582C8CCE1
:1006EB00C583CCF0A3C8C582C8CCC583CCDFEADEFA
:1006FB00E880DB89828A83E493A3F208DFF980CC5C
:10070B0088F0EF60010E4E60C388F0ED2402B40454
:10071B000050B9F582EB2402B4040050AF232345FB
:06072B00822390068B738F
:10073100BB010689828A83E0225002E722BBFE02C6
:09074100E32289828A83E49322F9
:10074A00BB010CE58229F582E5833AF583E0225064
:10075A0006E92582F8E622BBFE06E92582F8E222AE
:0D076A00E58229F582E5833AF583E49322C8
:10077700BB010689828A83F0225002F722BBFE0161
:02078700F3225B
:10078900F8BB010DE58229F582E5833AF583E8F0A6
:10079900225006E92582C8F622BBFE05E92582C852
:0207A900F2223A
:1007AB00EF8DF0A4A8F0CF8CF0A428CE8DF0A42E62
:0207BB00FE221C
:1007BD00C2D5EC30E709B2D5E4C39DFDE49CFCEE57
:1007CD0030E715B2D5E4C39FFFE49EFE120885C342
:1007DD00E49DFDE49CFC800312088530D507C3E43D
:0607ED009FFFE49EFE22C6
:1007F300E8600FECC313FCED13FDEE13FEEF13FFE4
:03080300D8F12207
:10080600E8600FEFC333FFEE33FEED33FDEC33FC50
:03081600D8F122F4
:10081900BB010789828A830208E65005E9F80208C4
:10082900DABBFE05E9F80208F289828A830208FE2A
:10083900BB010789828A830208535005E9F8020936
:0A0849000EBBFE05E9F802091A22B1
:0C085300ECF0A3EDF0A3EEF0A3EFF02218
:10085F00D083D082F8E4937012740193700DA3A328
:10086F0093F8740193F5828883E47374029368603C
:06087F00EFA3A3A380DF3C
:1016C000020CE5E493A3F8E493A34003F68001F24F
:1016D00008DFF48029E493A3F85407240CC8C3332B
:1016E000C4540F4420C8834004F456800146F6DFFA
:1016F000E4800B0102040810204080900F3CE47E3F
:10170000019360BCA3FF543F30E509541FFEE493EE
:10171000A360010ECF54C025E060A840B8E493A3B5
:10172000FAE493A3F8E493A3C8C582C8CAC583CAE0
:10173000F0A3C8C582C8CAC583CADFE9DEE780BE98
:010FF50000FB
:10088500BC000BBE0029EF8DF084FFADF022E4CC57
:10089500F875F008EF2FFFEE33FEEC33FCEE9DEC20
:1008A500984005FCEE9DFE0FD5F0E9E4CEFD22ED66
:1008B500F8F5F0EE8420D21CFEADF075F008EF2FB0
:1008C500FFED33FD4007985006D5F0F222C398FDA1
:0508D5000FD5F0EA223E
:0C08DA00E6FC08E6FD08E6FE08E6FF224A
:0C08E600E0FCA3E0FDA3E0FEA3E0FF2285
:0C08F200E2FC08E2FD08E2FE08E2FF2242
:1008FE00E493FC740193FD740293FE740393FF2240
:0C090E00ECF608EDF608EEF608EFF62215
:0C091A00ECF208EDF208EEF208EFF22219
:00000001FF
