# 
# $Id: USB_FW.hex 7809 2010-04-22 10:32:44Z dima $ 
# 
:03004300021D009B
:03005300021D008B
:101D0000021C7D00021CDA00021CC400021C9500AB
:081D1000021A6D000219F60031
:100C00001201000200000040AAAAAAAAAAAA010290
:100C100003010A060002000000400100090237003B
:100C2000020100C0000904000002FFFFFF040705E5
:100C3000020200020007058602000200090401000A
:100C400002FFFFFF050705040200020007058802F6
:100C5000000200001201000200000040E4E4511113
:100C60000000010203010A0600020000004001002A
:100C700009023700020100C0320904000002FFFF30
:100C8000FF0407050202400000070586024000003D
:100C90000904010002FFFFFF0507050402400000F0
:100CA0000705880240000006040016001400120028
:100CB0000A00260004030904160358006F0072009E
:100CC00063006F006D0020004C00540044001403CA
:100CD00041007300740072006900620061006E00E0
:100CE0006B001203530065007200690061006C0024
:100CF0004E006F000A0346005000470041002603E3
:100D00004D0061006E00610067006D0065006E00BF
:100D10007400500072006F00630065007300730080
:060D20006F0072000000EC
:05004E000300000000AA
:100FDC0041E0360041E0B50042E0B0000041E037AE
:100FEC0000021BE0840218E07843E0B20000004DE0
:0F0FFC00E038373630304D5020202020202000A4
:101BBE008B4F8A508951E5541554AE53700215530C
:101BCE004E6014AB4F0551E551AA507002055014EA
:081BDE00F9ED1206E680DF229A
:101A33008B4F8A508951E5561556AE557002155590
:101A43004E6026AB520554E554AA53700205531455
:101A5300F91206A0FFAB4F0551E551AA50700205DC
:0A1A63005014F9EF1206E680CD22C0
:101C0E00E490E670F075B5E653B5EE43B28053B28C
:101C1E00F4A2B53390E0B5F0C2B3C2B67F327E0007
:061C2E00121C53D2B62285
:101CAD00538EF75389FB5389F74389015389FDE41B
:071CBD00F58AF58CD2A92283
:1016A6008C438D44AA06A9077552018A538954753D
:1016B600550075561C7B017AE0794B121A3390E07F
:1016C60063E0FCA3E0FDA3E0FEA3E064D1FFEE64CB
:1016D6008DFEED644CFDEC6449FC90E0631207C29C
:1016E6007EE07F4B7D1C7C0012114A7EE07F4B7BA7
:1016F6001C7A00AD44AC431211FE7D1C7C00AF4445
:10170600AE43120F157D1C7C00AF44AE43021AA3F4
:08188E008E438F448C458D460A
:10189600C207121C34BF5004D207803BE4F547F55B
:1018A60048E5462548F582E5453547F583E0FFE5F9
:1018B600442548F582E5433547F583E0B5070E052F
:1018C60048E548700205476410454770D4E548640A
:0918D6001045477002D207A20779
:0118DF0022E6
:100D2600121C348F40E4F544F545AD45AC4412122F
:100D3600B474682545F582E434E0F583E541F005B1
:100D460045E54570020544C39408E54464809480F3
:100D560040D890E068E0B4C008754200754308804A
:100D66000675421D754336754400754508C3E5454D
:100D76009410E5446480948050231212B074682560
:100D860045F582E434E0F583E541F00545E5457037
:100D96000205440543E54370D4054280D07541FF02
:100DA60075421D754319754400754510C3E5459494
:100DB6002CE544648094805033E540B4510E7B00AA
:100DC6007A007941AD43AC42FF1212BC74682545E6
:100DD600F582E434E0F583E541F00545E54570022A
:100DE60005440543E54370C4054280C075421D7540
:100DF600433EE4F541F544F545C3E5459406E5442F
:100E060064809480502FE540B4510A90E068E0B4C5
:100E1600C2031212B074452545F582E434E0F58329
:100E2600E541F00545E545700205440543E5437097
:0F0E3600C8054280C490E068E0B4C20374C0F005
:010E4500228A
:0A177C008E438F448B458A4689474F
:101786007E00E5442DF54CEE3543F54B121C348FA7
:1017960048E5486451600BC3E5449410E543940062
:1017A600503585434985444AC3E54A954CE54995F4
:1017B6004B5024AB45AA46A947AD4AAC49AF48129F
:1017C60015AB054AE54A7002054974012547F547F8
:0717D600E43546F54680D121
:0117DD0022E9
:06162E008B408A41894255
:10163400D2067552017553E0755468755500755698
:10164400107B017AE07994121A33E5422410F9E40C
:101654003541854052F553895475550075561C7BA8
:10166400017AE079A4121A337EE07F947CE07D1A3B
:101674001216A67EE07F1AE542241CF9E43541FCEB
:10168400AD0112188E5016AB40E5422410F9E43532
:1016940041FA7D1C7F197E1D12177C8002C206A2AE
:0116A400063F
:0116A5002222
:100E46007F03121B93EF2402FFE43EA907754001BE
:100E5600F541894290E069E0FFE50C2408F582E45B
:100E6600350BF583EFF090E06AE0FFE50C2409F519
:100E760082E4350BF583EFF090E06BE0FFE50C24A0
:100E86000AF582E4350BF583EFF090E06CE0FFE5C0
:100E96000C240BF582E4350BF583EFF090E06DE062
:100EA600FFE50C240CF582E4350BF583EFF090E0BA
:100EB6006EE0FFE50C240DF582E4350BF583EFF0CB
:100EC6007F087E00E4FDEDC39408502874682FF572
:100ED60082E434E0F583E0FCAB40AA41A94275F018
:100EE60002EDA4F58285F083EC1206F80D0FBF0023
:100EF600010E80D2E5192404F582E43518F583E065
:0E0F060030E0047F0180027F0090E036EFF0C3
:010F140022BA
:10192A00AE0790E06BE02EFFE50C240AF582E43561
:10193A000BF583EFF0E50C240BF582E4350BF58308
:10194A00E0FEE50C240AF582E4350BF583E0FDEDB3
:10195A00FF90E0B0EEF0A3EFF0D206121B0A90E679
:05196A0080E054F7F0DD
:01196F002255
:1013FA0090E600E054E74410F090E60174C0F090E3
:10140A00E6107420F000000090E611F00000009051
:10141A00E6047480F0000000740FF0000000E4F0AD
:10142A0000000090E6187410F0000000E490E6193D
:10143A00F000000090E61A7408F0000000E490E65C
:10144A001BF000000090E6497482F0000000F000F2
:10145A00000090E6247402F0000000E490E625F013
:10146A0000000090E6957480F0000000F000000093
:10147A0043AF017B017AE07914755300755406E491
:04148A00FD021BBE86
:061C4D00D2877F0A7E0031
:101C53007C007D1812071AEF1FAC0670011E4C7032
:021C6300F62267
:0A1837008E408F418B428A438944A2
:10184100E4F545F546C3E5469541E5459540503BF0
:10185100AB42AA43A9448546828545831206B9FF56
:10186100E4FBFAC2B2EF1392B7EFC313FFD2B20B8C
:10187100BB00010AEB64084A70E9C2B220B002C39E
:0C188100220546E54670BE054580BAD33E
:01188D002238
:101C650090E60174C0F0C2B67F967E00121C53D276
:081C7500B67F327E00021C5311
:101D1800D2B1121C4DC2B1121C4FC2877F0A7E007D
:031D2800021C5347
:0219B600AB077D
:1019B800E4F9FAEBC413131354011392B17F027EB6
:1019C80000121C53D2877F057E00121C53E925E0C4
:1019D800FFA283E4334FF97F057E00121C53EB25E9
:0D19E800E0FBC287121C4F0ABA08C8AF010D
:0119F50022CF
:0618E0008B548A55895665
:1018E600A2AFE433F55C121D18E4F55BE55BC39526
:1018F6005A5027AB54AA55A956855B8275830012A8
:1019060006B9FF1219B6AB57AA58A959855B827555
:101916008300EF1206F8055B80D2120028E55C24EE
:03192600FF92AF7E
:01192900229B
:0B002800C2B1121C4F121C4DD2B122BD
:10000E0075408F8F4175570075580075594A755A4E
:0A001E00027B007A0079400218E02E
:101AD90078407C007D007BFF7A00794E7E007F058F
:101AE90012067A30B4157557007558007559407546
:101AF9005A057B007A0079401218E0E5425401FF4B
:011B090022B9
:100ABD007540007541007542007544017545E0753E
:100ACD0046007547017548E0754908E4FF7B017ADA
:100ADD00E07900F553755408FD121BBEAB44AA45D1
:100AED00A94674011206E6E4F54EE54EC454F0AB8A
:100AFD0044AA45A9469000011206F8854757854836
:100B0D0058854959755A081218E0AB47AA48A949A2
:100B1D009000021206B9FF530770EF24E06017240E
:100B2D00F0601924F0601B2430702A75400185187F
:100B3D00418519428028E5192401800AE51924020E
:100B4D008004E5192403FDE43518A905754001F568
:100B5D004189428009754000754100754200E541AB
:100B6D00454245406028AB40AA41A9421206A0FE6D
:100B7D00547FFDD3940740047C088002AC058C4360
:100B8D00EE5480FEC3ED95434E1206E6800BEF70DA
:100B9D00047E0180027E008E43744A254EF8A643E2
:100BAD00054EE54EC394045003020AF7AB44AA4523
:100BBD00A94674881206E6AB44E5462401F9E435EE
:100BCD0045FA75520075530075544A7555007556A2
:100BDD0004121A33854757854858854959755A085F
:090BED00AB44AA45A9460218E038
:1017DE008F4090E0B0E0FEA3E054F064607003EE42
:1017EE00641160037F012290E036E070037F0F22C8
:1017FE00E5407003308108E540B401062080037F88
:10180E00102290E0B5E0B540037F0122E4F511D23D
:10181E0006121B0AAF4090E0B5EFF024FF92B59090
:09182E00E680E054F7F07F00228F
:101C340090E678E0541824F06008240870087F5077
:081C440080067F518002E4FFDD
:011C4C002275
:0C12B000AD43AC427B007A007941AF40B6
:0C12BC008F468C478D488B498A4A894B2D
:1012C800E4F54CF54D754E03FDF54FF550A2AF33DF
:1012D800F551E54624AF600D047012754C00754D4C
:1012E800017D018008754C00754D02E4FDE54660FE
:1012F80051E54D454C604BE54790E0B2F0E548A319
:10130800F074B22DF582E434E0AD82FCAB4DAF460B
:10131800121716754F008F507F0A7E00121970E55C
:1013280050454F60107CE07D677B01AF4612135536
:10133800754F008F5090E067E0AB49AA4AA94B125D
:0C13480006E6E55124FF92AFAE4FAF5017
:011354002276
:0C15AB008F4D8C4E8D4F8B508A51895211
:1015B700E4F553F554755503FDF556F557A2AF33CA
:1015C700F558E54D24AF600D04701275530075543E
:1015D700027D018008755300755403E4FDE54D60F5
:1015E7003BE55445536035E54E90E0B2F0E54FA337
:1015F700F0AB50AA51A9521206A090E0B4F074B211
:101607002DF582E434E0AD82FCAB54AF4D121716D2
:101617007556008F577F0A7E00121970E55824FF10
:0616270092AFAE56AF5772
:01162D00229A
:10005600E4F532F533F536F53BF53CF53DF53EE591
:10006600AA548460030205A990E694E0FE90E69502
:10007600E0FBEEF53BEBF53CC39405E53B94004015
:100086000790F404E0FD80027DFFED1207CE00CE5E
:100096000102AE0502F50703540903B80B011C0E55
:1000A60000E40F018511024513051B2503DF31040A
:1000B600353204483404903504A73604C43703C5E2
:1000C6004503D4470000052975320075330790FCB7
:1000D600047481F0A37414F0E4A3F002054C7F0FBE
:1000E60012000E75320075330690FC047480F0E43D
:1000F600A3F0753605F511FE74002536F9EE34F4D5
:10010600FA7B0112162E400690FC05740EF0120DB5
:10011600267F8F0202A87F0E12000E7532007533FD
:100126000590FC04748EF0121C348F3EE53E64513B
:100136006019E53E6450601375320075330690FC15
:10014600047480F0A3740BF002054C120D267400A3
:100156002533F974FC3532FA7B01C0038B52755393
:10016600E075546875550075562CD003121A337411
:100176002C2533F533E43532F5327F8E0202A8752D
:10018600320075330790FC047491F090E678E090A5
:10019600FC05F030B4047F0180027F0090FC06EF7E
:1001A600F074002533F974FC3532FA7B017553007F
:1001B600755412E4FD121BBE74002533F974FC3528
:1001C60032FA7B01C0038B527553E075543875556E
:1001D60000755606D003121A3374062533F533E438
:1001E6003532F532FE74002533F974FC3EFA7B0194
:1001F600C0038B527553E075541475550075560639
:10020600D003121A3374062533F533E43532F5324A
:10021600FE74002533F974FC3EFA7B01C0038B5251
:100226007553E0755445755500755606D003121A78
:100236003374062533F533E43532F53202054C7F47
:100246001312000E75320075331D90FC047493F082
:10025600121C348F3E75391D753A00753700753896
:1002660005D3E53A9418E539941D5034E53EB4516A
:100276000E7B007A00793FAD3AAC39FF1212BC749E
:10028600002538F58274FC3537F583E53FF0053AED
:10029600E53A700205390538E53870C5053780C17D
:1002A6007F9312000E02054C75320075330690FCE2
:1002B600047480F0E4A3F090F405E090E037F0E0F9
:1002C60014702A30B01E121C657552017553F475F0
:1002D60054067555007556067B017AE07914121A94
:1002E6003302054C90FC057401F00203B08056758C
:1002F600320075330690FC047480F0E4A3F0753682
:1003060007AF36FEC3E53C9FF535E53B9EF53490D9
:10031600E037E014702F20B00330B42074002FF9BA
:1003260074F43EFA7B01AF35AE341218375004E44C
:100336000204A090FC05740CF002054C90FC0574B8
:1003460002F002054C90FC057403F002054C753270
:100356000075330690FC047480F0E4A3F090E03757
:10036600E014704030B43590E6017403F07F647E8B
:1003760000121C53120D267EE07F687CE07DB612CB
:1003860016A67EE07FB6AD1CAC1B12188E50051269
:100396000ABD801690FC05740EF0800E90FC057464
:1003A6000DF0800690FC057403F0E490E037F0024F
:1003B600054CE4F532F5337F0212192A02054C1278
:1003C6000D26120E46E4FF1217DEE4FF80027F01BF
:1003D60012192A121C6502054C75320075330690F7
:1003E600FC047480F0E4A3F090F405E0F53DE4F538
:1003F60011E53D64016004E53D703290E0B0E0FE39
:10040600A3E054F064607003EE64116002807290A1
:10041600E036E070028058E5116401600AE511706B
:100426000C121AD9EF6006853D1102054C805275F3
:10043600320075330690FC0474B2F0A3E511F002A5
:10044600054C75320075330690FC047480F0E4A305
:10045600F090F405E0F53DFF1217DEEF24F1600F92
:100466001460152410701AE4F532F53302054C9029
:10047600FC05740FF002054C90FC057410F00205A3
:100486004C90FC057401F002054C7532007533067C
:1004960090FC0474B5F090E0B5E090FC05F0020520
:1004A6004C75320075330690FC0474B6F0A280E4F5
:1004B6003325E0FFA281E4334FA3F002054C853BD0
:1004C60032853C3390FC0474B7F0753605C3E53CC1
:1004D6009536F535E53B9400F53474002536F582FE
:1004E600E434F4F583E06488605CAF367E00740023
:1004F6002FF9EE34F4FA7B01C003C00174002FF922
:10050600EE34FC8B57F558895985355AD001D003FE
:100516001218E0803175320075330590FC0474A51D
:10052600F0802375320075330690FC047480F0C3A6
:10053600E53C9405E53B94005006A37407F080065D
:1005460090FC057406F090F404E0B48004A3E07017
:100556001290F404E06405600FE06407600AE0644A
:10056600096005E490E037F0E5334532602CE53369
:10057600FD90FC00F0E532FFA3F090F402E090FC61
:1005860002F090F403E090FC03F090E69CEFF0009C
:10059600000090E69DEDF000000090E6957480F076
:0305A60000000052
:0105A900222F
:02004100D322C8
:0800030090E6BAE0F51DD322DE
:101D2B0090E740E51DF0E490E68AF090E68B04F036
:021D3B00D322B1
:0800460090E6BAE0F51AD3229E
:101D3D0090E740E51AF0E490E68AF090E68B04F027
:021D4D00D3229F
:101BE60090E6B9E0242F600D04701990E604E0FF3A
:101BF600430780800890E604E0FF53077F0000005B
:071C0600EFF08002D322C3BE
:011C0D0022B4
:101C7D00C0E0C083C082D2015391EF90E65D740144
:081C8D00F0D082D083D0E032D8
:101CC400C0E0C083C0825391EF90E65D7404F0D00D
:061CD40082D083D0E03253
:101CDA00C0E0C083C0825391EF90E65D7402F0D0F9
:061CEA0082D083D0E0323D
:101A6D00C0E0C083C08285120D85130E850E828560
:101A7D000D83A37402F085090F850A1085108285E8
:101A8D000F83A37407F05391EF90E65D7410F0D0BF
:061A9D0082D083D0E0328C
:101C9500C0E0C083C082D2035391EF90E65D740823
:081CA500F0D082D083D0E032C0
:1019F600C0E0C083C08290E680E030E72085090D14
:101A0600850A0E850E82850D83A37402F085120F5A
:101A1600851310851082850F83A37407F05391EF09
:0D1A260090E65D7420F0D082D083D0E032D5
:0F1CF000000102020303040405050300000000C5
:06100B00011100010800C4
:03000B000210964A
:10109600C0E0C0F0C083C082C0D075D000C000C020
:0D10A60001C002C003C004C005C006C007A1
:1010B30078217C007D007BFF7A1C79FA7E007F0516
:1010C30012067A90E0B5E0F526C204752700E5081C
:1010D300600415088056750805E5117004C2048084
:1010E30043A280308101B3500B3081047F008030F4
:1010F3007F01802C30B41575570075580075592140
:10110300755A057B007A0079211218E0E523540112
:10111300F527701090E0B5E060047F0080027F0146
:0C1123008F26D204300405AF261217DE20
:10112F00D007D006D005D004D003D002D001D00014
:0B113F00D0D0D082D083D0F0D0E032BE
:10148E00C203C200D202C201121C0E121CAD1213F4
:10149E00FA750B0C750C0075140C75151275090C7C
:1014AE00750A1C75120C75137085120F8513107545
:1014BE00160C7517B4120D26120E46D2E843D8201C
:1014CE0090E668E04409F090E65CE0443DF0121CC2
:1014DE00347B007A007931E4FDFC1212BCE53164F4
:1014EE00C26007E490E0B5F0C2B57F0112192AD2AE
:1014FE00AFD28C538EF8C203C2AF120056D2AF30A9
:10150E000105120895C2013003EEC203121B67805B
:01151E00E7E5
:0B00360090E50DE030E402C322D3226D
:1008950090E6B9E0700302095A1470030209CF24E7
:1008A500FE7003020A4A24FB700302095414700304
:1008B50002094E1470030209421470030209482408
:1008C500056003020AA91200414003020AB590E639
:1008D500BBE024FE602714603E24FD6011146027F0
:1008E50024067056E50B90E6B3F0E50C8042120045
:1008F500365044E51490E6B3F0E5158033E50D90E8
:10090500E6B3F0E50E802985120F851310E50F90EB
:10091500E6B3F0E510801990E6BAE0FF121B93AA42
:1009250006A9077B01EA494B600DEE90E6B3F0EFAF
:1009350090E6B4F0020AB5020AA4020AA4121D3D0B
:10094500020AB5120046020AB5120003020AB512E0
:100955001D2B020AB590E6B8E0247F6015146019D6
:1009650024027063A200E43325E0FFA202E4334FC2
:100975008041E490E740F0803F90E6BCE0547EFF84
:100985007E00E0D394807C0040047D0180027D00E0
:10099500EC4EFEED4F24F0F582741C3EF583E49396
:1009A500FF3395E0FEEF24A1FFEE34E68F82F58359
:1009B500E0540190E740F0E4A3F090E68AF090E679
:1009C5008B7402F0020AB5020AA490E6B8E024FE90
:1009D500601624026003020AB590E6BAE0B4010588
:1009E500C200020AB5020AA490E6BAE0705590E684
:1009F500BCE0547EFF7E00E0D394807C0040047D03
:100A05000180027D00EC4EFEED4F24F0F582741C52
:100A15003EF583E493FF3395E0FEEF24A1FFEE342A
:100A2500E68F82F583E054FEF090E6BCE054801337
:100A35001313541FFFE0540F2F90E683F0E044207A
:100A4500F0806D805A90E6B8E024FE6019240270AB
:100A55004E90E6BAE0B40104D200805490E6BAE0C4
:100A65006402604C803990E6BCE0547EFF7E00E075
:100A7500D394807C0040047D0180027D00EC4EFE15
:100A8500ED4F24F0F582741C3EF583E493FF339516
:100A9500E0FEEF24A1FFEE34E68F82F583800D9012
:100AA500E6A08008121BE6500790E6A0E04401F09E
:070AB50090E6A0E04480F090
:010ABC002217
:03003300020BF6C7
:040BF60053D8EF32AF
:101011006080E0D2292E43C9A2D87C013D3654A17B
:10102100ECF0061362A705F3C0C7738C98932BD914
:10103100BC4C82CA1E9B573CFDD4E01667426F1818
:101041008A17E512BE4EC4D6DA9EDE49A0FBF58EA4
:10105100BB2FEE7AA968799115B2073F94C2108926
:101061000B225F21807F5D9A5A903227353ECCE773
:10107100BFF79703FF1930B348A5B5D1D75E922AC0
:10108100AC56AAC64FB838D296A47DB676FC6BE2B0
:041091009C7404F156
:08114A008C458D46AB07AA0697
:10115200E4F547F548C3E5489546E5456480F8E57A
:101162004764809840030211F9E54825E0FFE5470E
:1011720033FE74D22FF58274E03EF583E0FF7E00E9
:10118200AC45AD4612072C8C498D4AE54825E0FF57
:10119200E54733FE74D32FF58274E03EF583E0FF1A
:1011A2007E00AC45AD4612072C8C4B8D4CE54A6552
:1011B2004C7004E549654B6030EB254AF582EA350F
:1011C20049F583E0F9EB254CF582EA354BF583E0EE
:1011D200FFEB254AF582EA3549F583EFF0EB254C22
:1011E200F582EA354BF583E9F00548E548600302EC
:0B11F200115705470211577E007F01D6
:0111FD0022CF
:0C11FE008E458F468C478D488A498B4AED
:10120A00E54645456006E54845477004E4FEFF2289
:10121A00E4F54BF54CC3E54C954AE5496480F8E59D
:10122A004B648098507BE4F54DF54EE548254CF526
:10123A0082E547354BF583E4F0C3E54E954AE54927
:10124A006480F8E54D6480985049E54E254C24D2D7
:10125A00F582E434E0F583E0FFE546254EF582E5C4
:10126A0045354DF583E0FEEF8EF0A4FFE548254CA9
:10127A00F582E547354BF583E02FFFE548254CF528
:10128A0082E547354BF583EFF0054EE54E70AA052A
:10129A004D80A6054CE54C600302121F054B021255
:0512AA001F7E007F0122
:0112AF00221C
:101B39001206A0FF9000031206B91206E6900003F0
:101B4900EF1206F89000021206B9FF900001120682
:0E1B5900B99000021206F8900001EF0206F8A3
:080F15008E458F468C478D4884
:100F1D00E4F549F54AE548AE477802CEA2E713CE8F
:100F2D0013D8F8FFC3E54A9FEE6480F8E549648065
:100F3D00984003020FD7E54AAE497802C333CE334A
:100F4D00CED8F92546FFEE3545FAA9077B018B4B27
:100F5D00F54C894D74D3254AF582E434E0F583E0F0
:100F6D00541FFFE48F51F550F54FF54E121B39AB61
:100F7D004BAA4CA94D120788C374209551F9F8124C
:100F8D000775C004C005C006C007A94D120788A982
:100F9D0051A801120762D003D002D001D000EF4B4F
:100FAD00FFEE4AFEED49FDEC48FCAB4BAA4CA94DBA
:100FBD001207A8AB4BAA4CA94D121B39054AE54A9D
:0E0FCD006003020F220549020F227E007F0101
:010FDB0022F3
:101AA300D3ED9410EC64809480402AED1D70011CEA
:101AB300142FF582EE3CF583E0FB547F24D2F582AC
:101AC300E434E0F583E0F9540F2FF582E43EF58327
:051AD300E06BF080CB88
:011AD80022EB
:101B670090E682E030E004E020E60B90E682E03089
:101B7700E119E030E71590E680E04401F07F147E3C
:0C1B87000012197090E680E054FEF0227D
:101B0A0030060990E680E0440AF0800790E680E01B
:101B1A004408F07FDC7E0512197090E65D74FFF0D0
:0F1B2A0090E65FF05391EF90E680E054F7F022E1
:101970008E598F5A90E600E054187012E55A2401EF
:10198000FFE43559C313F559EF13F55A801590E666
:1019900000E05418FFBF100BE55A25E0F55AE55951
:1019A00033F559E55A155AAE59700215594E60056E
:0619B000121D4F80EE2223
:061355008C528D53AE071F
:10135B00EB70037F012290E678E020E6F990E678C7
:10136B007480F0EE25E0440190E679F090E678E0A9
:10137B0030E0F990E678E020E26BE030E167BB010A
:10138B000790E678E04420F090E679E0F5541BEB0B
:10139B00603090E678E030E0F990E678E020E245C6
:1013AB00BB010790E678E04420F090E679E0FF057A
:1013BB0053E553AC527002055214F5828C83EFF057
:1013CB0080CC90E678E030E0F990E678E020E2150A
:1013DB0090E678E04440F090E679E08553828552C0
:0E13EB0083F07F012290E678E04440F07F001E
:0113F90022D1
:1017160090E678E020E6F990E6787480F0EF25E030
:1017260090E679F090E678E030E0F990E678E0200F
:10173600E23AE030E136EBD3940040260DEDAE04FC
:1017460070010C14F5828E83E090E679F01B90E62A
:1017560078E030E0F990E678E020E210E020E1D68B
:10176600800A90E678E04440F07F012290E678E037
:051776004440F07F007B
:01177B00224B
:021B9300A907A0
:101B9500AE16AF178F828E83A3E064037017AD0175
:101BA50019ED7001228F828E83E07C002FFDEC3EC3
:081BB500FEAF0580DFE4FEFF36
:011BBD002205
:101D4F007400F58690FDA57C05A3E582458370F9A7
:011D5F002261
:0300000002151FC7
:0C151F00787FE4F6D8FD75815C0215664B
:1005AA00E709F608DFFA8046E709F208DFFA803E33
:1005BA0088828C83E709F0A3DFFA8032E309F60820
:1005CA00DFFA8078E309F208DFFA807088828C8388
:1005DA00E309F0A3DFFA806489828A83E0A3F6083C
:1005EA00DFFA805889828A83E0A3F208DFFA804C16
:1005FA0080D280FA80C680D4806980F280338010ED
:10060A0080A680EA809A80A880DA80E280CA803355
:10061A0089828A83ECFAE493A3C8C582C8CCC583CD
:10062A00CCF0A3C8C582C8CCC583CCDFE9DEE7809D
:10063A000D89828A83E493A3F608DFF9ECFAA9F01C
:10064A00EDFB2289828A83ECFAE0A3C8C582C8CC72
:10065A00C583CCF0A3C8C582C8CCC583CCDFEADE8B
:10066A00E880DB89828A83E493A3F208DFF980CCED
:10067A0088F0EF60010E4E60C388F0ED2402B404E6
:10068A000050B9F582EB2402B4040050AF2323458D
:06069A0082239005FA73B3
:1006A000BB010689828A83E0225002E722BBFE0258
:0906B000E32289828A83E493228B
:1006B900BB010CE58229F582E5833AF583E02250F6
:1006C90006E92582F8E622BBFE06E92582F8E22240
:0D06D900E58229F582E5833AF583E493225A
:1006E600BB010689828A83F0225002F722BBFE01F3
:0206F600F322ED
:1006F800F8BB010DE58229F582E5833AF583E8F038
:10070800225006E92582C8F622BBFE05E92582C8E3
:02071800F222CB
:10071A00EF8DF0A4A8F0CF8CF0A428CE8DF0A42EF3
:02072A00FE22AD
:10072C00C2D5EC30E709B2D5E4C39DFDE49CFCEEE8
:10073C0030E715B2D5E4C39FFFE49EFE1207F4C365
:10074C00E49DFDE49CFC80031207F430D507C3E460
:06075C009FFFE49EFE2257
:10076200E8600FECC313FCED13FDEE13FEEF13FF75
:03077200D8F12299
:10077500E8600FEFC333FFEE33FEED33FDEC33FCE2
:03078500D8F12286
:10078800BB010789828A830208555005E9F80208E7
:1007980049BBFE05E9F802086189828A8302086D6F
:1007A800BB010789828A830207C25005E9F802085B
:0A07B8007DBBFE05E9F80208892266
:0C07C200ECF0A3EDF0A3EEF0A3EFF022AA
:1007CE00D083D082F8E4937012740193700DA3A3BA
:1007DE0093F8740193F5828883E4737402936860CE
:0607EE00EFA3A3A380DFCE
:10152B0002148EE493A3F8E493A34003F68001F234
:10153B0008DFF48029E493A3F85407240CC8C333C1
:10154B00C4540F4420C8834004F456800146F6DF90
:10155B00E4800B0102040810204080900FDCE47E35
:10156B00019360BCA3FF543F30E509541FFEE49385
:10157B00A360010ECF54C025E060A840B8E493A34C
:10158B00FAE493A3F8E493A3C8C582C8CAC583CA77
:10159B00F0A3C8C582C8CAC583CADFE9DEE780BE2F
:01109500005A
:1007F400BC000BBE0029EF8DF084FFADF022E4CCE9
:10080400F875F008EF2FFFEE33FEEC33FCEE9DECB1
:10081400984005FCEE9DFE0FD5F0E9E4CEFD22EDF7
:10082400F8F5F0EE8420D21CFEADF075F008EF2F41
:10083400FFED33FD4007985006D5F0F222C398FD32
:050844000FD5F0EA22CF
:0C084900E6FC08E6FD08E6FE08E6FF22DB
:0C085500E0FCA3E0FDA3E0FEA3E0FF2216
:0C086100E2FC08E2FD08E2FE08E2FF22D3
:10086D00E493FC740193FD740293FE740393FF22D1
:0C087D00ECF608EDF608EEF608EFF622A7
:0C088900ECF208EDF208EEF208EFF222AB
:00000001FF
