# 
# $Id: USB_BURN.hex 9964 2011-10-25 10:15:08Z dima $ 
# 
:03004300021F0099
:03005300021F0089
:101F0000021E6300021EC000021EAA00021E7B0009
:081F1000021C4E00021BD70069
:100F00001201000200000040AAAAAAAAAAAA01028D
:100F100003010A0600020000004001000902370038
:100F2000020100C0000904000002FFFFFF040705E2
:100F30000202000200070586020002000904010007
:100F400002FFFFFF050705040200020007058802F3
:100F5000000200001201000200000040E4E4511110
:100F60000000010203010A06000200000040010027
:100F700009023700020100C0320904000002FFFF2D
:100F8000FF0407050202400000070586024000003A
:100F90000904010002FFFFFF0507050402400000ED
:100FA0000705880240000006040016001400120025
:100FB0000A00260004030904160358006F0072009B
:100FC00063006F006D0020004C00540044001403C7
:100FD00041007300740072006900620061006E00DD
:100FE0006B001203530065007200690061006C0021
:100FF0004E006F000A0346005000470041002603E0
:101000004D0061006E00610067006D0065006E00BC
:101010007400500072006F0063006500730073007D
:061020006F0072000000E9
:05002E000300000000CA
:1011AC0041E0370041E0BB0042E0B6000041E038CE
:1011BC0000026EE08A026BE07E43E0B80000005251
:1011CC00E039393733343A393934324D5020202014
:0411DC0020202000AF
:101DC9008B3D8A3E893FE5421542AE41700215417D
:101DD9004E6014AB3D053FE53FAA3E7002053E1437
:081DE900F9ED1206EE80DF2285
:101C14008B458A468947E54C154CAE4B7002154BF3
:101C24004E6026AB48054AE54AAA497002054914A4
:101C3400F91206A8FFAB450547E547AA4670020519
:0A1C44004614F9EF1206EE80CD22DF
:101D9F00C2B5C2B7E490E670F075B5E653B5EE4341
:101DAF00B28053B2F4A2B53390E0BBF0C2B3C2B667
:0A1DBF007F327E00121E39D2B622D8
:101E9300538EF75389FB5389F74389015389FDE433
:071EA300F58AF58CD2A9229B
:10189D008C438D44AA06A9077548018A49894A7562
:1018AD004B00754C1C7B017AE07951121C1490E0B1
:1018BD0051E0B4C20374C0F090E069E0FCA3E0FD18
:1018CD00A3E0FEA3E064D1FFEE648DFEED644CFD5C
:1018DD00EC6449FC90E0691207CA7EE07F517D1CE3
:1018ED007C0012131F7EE07F517B1C7A00AD44AC4F
:1018FD00431213D37D1C7C00AF44AE431210267DE2
:0A190D001C7C00AF44AE43021C84B2
:080E8B008E408F418C428D4323
:100E9300C20712001590E160EFF0BF5004D2078043
:100EA30057E490E161F0A3F090E161E0FEA3E0FF7D
:100EB300C39410EE648094805030E5432FF582E5AF
:100EC300423EF583E0FF90E161E0FCA3E02541F5BC
:100ED30082E5403CF583E0B5071090E162E004F061
:100EE30070C690E161E004F080BE90E161E07004BF
:0A0EF300A3E064107002D207A2070A
:010EFD0022D2
:020D61008F3DC4
:100D63001200158F3EE4F542F543AD43AC42121534
:100D73002F746E2543F582E434E0F583E53FF005F7
:100D830043E54370020542C39408E54264809480BE
:100D930040D8E53D600490E06EF090E06EE0B4C0B2
:100DA30008754000754108800675401D754136750C
:100DB3004200754308C3E5439410E5426480948080
:100DC300502312152B746E2543F582E434E0F5832A
:100DD300E53FF00543E543700205420541E54170F7
:100DE300D4054080D0753FFF75401D75411975428C
:100DF30000754310C3E543942CE54264809480500E
:100E030033E53EB4510E7B007A00793FAD41AC40EF
:100E1300FF121537746E2543F582E434E0F583E55C
:100E23003FF00543E543700205420541E54170C4C7
:100E3300054080C075401D75413EE4F53FF542F520
:100E430043C3E5439406E54264809480502FE53E16
:100E5300B4510A90E06EE0B4C20312152B744B2513
:100E630043F582E434E0F583E53FF00543E5437061
:100E73000205420541E54170C8054080C490E06E1B
:070E8300E0B4C20374C0F0EB
:010E8A002245
:07198800FA7D1C7F197E1D92
:0A198F008E438F448B458A4689473A
:101999007E00E5442DF54CEE3543F54B1200158FCD
:1019A90048E5486451600BC3E5449410E54394004D
:1019B900503585434985444AC3E54A954CE54995DF
:1019C9004B5024AB45AA46A947AD4AAC49AF48128A
:1019D900181A054AE54A7002054974012547F54771
:0719E900E43546F54680D10C
:0119F00022D4
:061485008B3D8A3E893F09
:10148B00E4F5421200158F407B007A007941E4FDB0
:10149B00FC121537AB3DAA3EA93F1206A8B4C20EEB
:1014AB00E540B45106E54164C260037F1122AE02F0
:1014BB00AF01E9241CF9E43AFCAD0112189D7B0045
:1014CB007A0079AA7D01E4FFFE12198FAB3DE53F4F
:1014DB002410F9E4353E121988AB3DE53F2401F9A0
:1014EB00E4353EFA7D077F017E0012198FAB3DAAD2
:1014FB003EA93F1206A8B4C2067E1D7F3680047E2D
:10150B00007F08E92408F9E43AFA7D0812198FAB39
:0F151B003DAA3EA93F7D01E4FFFE12198FAF42AA
:01152A00229E
:061917008B3D8A3E893F72
:10191D00D2067548017549E0754A6E754B00754CD8
:10192D00107B017AE0799A121C14E53F2410F9E43A
:10193D00353E853D48F549894A754B00754C0C7B04
:10194D00017AE079AA121C147EE07F9A7CE07D1A60
:10195D0012189D7EE07F1AE53F241CF9E4353EFC0C
:10196D00AD01120E8B500FAB3DE53F2410F9E43560
:0A197D003E1219888002C206A2067D
:01198700223D
:1010ED007F03121D74EF2402FFE43EA907753D0135
:1010FD00F53E893FE55F2408F582E4355EF583749E
:10110D00E4F0E55F2409F582E4355EF58374E4F0DF
:10111D00E55F240AF582E4355EF5837412F0E55F30
:10112D00240BF582E4355EF5837411F090E073E0E5
:10113D00FFE55F240CF582E4355EF583EFF090E07A
:10114D0074E0FFE55F240DF582E4355EF583EFF085
:10115D007F087E00E4FDEDC394085028746E2FF5D2
:10116D0082E434E0F583E0FCAB3DAA3EA93F75F087
:10117D0002EDA4F58285F083EC1207000D0FBF0080
:10118D00010E80D2E56C2404F582E4356BF583E025
:0E119D0030E0047F0180027F0090E037EFF029
:0111AB002221
:021795008F3D86
:101797001200157B007A00793EE4FDFC121537E54F
:1017A7003D7031E53E90E071B4C206E02405FF804C
:1017B70002E0FFE55F240AF582E4355EF583EFF08A
:1017C70090E072E0FFE55F240BF582E4355EF58378
:1017D700EFF0800EE55F240AF582E4355EF5837449
:1017E70012F0E55F240BF582E4355EF583E0FEE554
:1017F7005F240AF582E4355EF583E0FDEDFF90E0B6
:10180700B6EEF0A3EFF0D206121CEB90E680E054A0
:02181700F7F0E8
:0118190022AC
:1016750090E600E054E74410F090E60174C0F09065
:10168500E6107420F000000090E611F000000090D4
:10169500E6047480F0000000740FF0000000E4F030
:1016A50000000090E6187410F0000000E490E619C0
:1016B500F000000090E61A7408F0000000E490E6DF
:1016C5001BF000000090E6497482F0000000F00075
:1016D500000090E6247402F0000000E490E625F096
:1016E50000000090E6957480F0000000F000000016
:1016F50043AF017B017AE07914754100754206E438
:04170500FD021DC9FB
:061E3300D2877F0A7E0049
:101E39007C007D18120722EF1FAC0670011E4C7042
:021E4900F6227F
:0A1AB0008E198F1A8B1B8A1C891DEA
:101ABA00E4F51EF51FC3E51F951AE51E9519503B5F
:101ACA00AB1BAA1CA91D851F82851E831206C1FF96
:101ADA00E4FBFAC2B2EF1392B7EFC313FFD2B20B11
:101AEA00BB00010AEB64084A70E9C2B220B002C323
:0C1AFA0022051FE51F70BE051E80BAD338
:011B060022BC
:101E4B0090E60174C0F0C2B67F967E00121E39D2A6
:081E5B00B67F327E00021E3941
:101ED600D2B1121E33C2B1121E35C2877F0A7E00EE
:031EE600021E39A0
:021B9700AB079A
:101B9900E4F9FAEBC413131354011392B17F027ED3
:101BA90000121E39D2877F057E00121E39E925E011
:101BB900FFA283E4334FF97F057E00121E39EB251E
:0D1BC900E0FBC287121E350ABA08C8AF0142
:011BD60022EC
:061B07008B518A52895344
:101B0D00A2AFE433F559121ED6E4F558E558C39546
:101B1D00575027AB51AA52A953855882758300128D
:101B2D0006C1FF121B97AB54AA55A956855882754D
:101B3D008300EF120700055880D2120036E55924B4
:031B4D00FF92AF55
:011B50002272
:0B003600C2B1121E35121E33D2B122DF
:101E1900753D8F8F3E75540075550075564775573A
:0A1E2900027B007A00793D021B07DE
:101CBA00783D7C007D007BFF7A00792E7E007F05CF
:101CCA0012068230B41575540075550075563D7567
:101CDA0057057B007A00793D121B07E53F5401FF47
:011CEA0022D7
:100AC500750800750900750A00750C01750DE0754E
:100AD5000E00750F017510E0751108E4FFF5187B20
:100AE500017AE07900F541754208FD121DC9AB0C8C
:100AF500AA0DA90E74011206EEE4F517E517C45404
:100B0500F0AB0CAA0DA90E900001120700850F5439
:100B1500851055851156755708121B07AB0FAA107E
:100B2500A9119000021206C1FF530770EF24E0607F
:100B35001B24F0602A24F0603C24F0604E244070B1
:100B450060750801856B09856C0A8024E56C2401B4
:100B5500FDE4356BA905750801F509890A8011E5DC
:100B65006C2402FDE4356BA905750801F509890AB0
:100B75007518088035E56C2403FDE4356BA905750A
:100B85000801F509890A751804801FE56C2405FD1F
:100B9500E4356BA905750801F509890A751898806A
:100BA50009750800750900750A00E509450A450833
:100BB5006022AB08AA09A90A1206A8FED395184017
:100BC50006AD18AE0580008E0B1206A8C3950B1254
:100BD50006EE800BEF70047E0180027E008E0B74A2
:100BE500122517F8A60B0517E517C3940550030240
:100BF5000B01AB0CAA0DA90E74881206EEAB0CE521
:100C05000E2401F9E4350DFA754800754900754A59
:100C150012754B00754C05121C14850F5485105523
:0F0C2500851156755708AB0CAA0DA90E021B07B7
:101A57008F3D90E0B6E0FEA3E054F064607003EEC3
:101A6700641160037F012290E037E070037F0F224B
:101A7700E53D7003308108E53DB401062080037F12
:101A8700102290E0BBE0B53D037F0122E4F564D26C
:101A970006121CEBAF3D90E0BBEFF024FF92B59030
:091AA700E680E054F7F07F002214
:07000E0090FC04F0753305BE
:1000150090E678E0541824F06008240870087F50B2
:0800250080067F518002E4FF18
:01002D0022B0
:0C152B00AD41AC407B007A00793FAF3E40
:0C1537008F448C458D468B478A488949BB
:10154300E4F54AF54B754C03FDF54DF54EA2AF336B
:10155300F54FE54424AF600D047012754A00754BD6
:10156300017D018008754A00754B02E4FDE5446086
:1015730051E54B454A604BE54590E0B8F0E546A39D
:10158300F074B82DF582E434E0AD82FCAB4BAF448C
:101593001219F1754D008F4E7F0A7E00121B51E523
:1015A3004E454D60107CE07D6D7B01AF441215D03C
:1015B300754D008F4E90E06DE0AB47AA48A94912E4
:0C15C30006EEE54F24FF92AFAE4DAF4E98
:0115CF0022F9
:0C181A008F4D8C4E8D4F8B508A5189529F
:10182600E4F553F554755503FDF556F557A2AF3358
:10183600F558E54D24AF600D0470127553007554CC
:10184600027D018008755300755403E4FDE54D6083
:101856003BE55445536035E54E90E0B8F0E54FA3BF
:10186600F0AB50AA51A9521206A890E0BAF074B88B
:101876002DF582E434E0AD82FCAB54AF4D1219F184
:101886007556008F577F0A7E00121B51E55824FFBC
:0618960092AFAE56AF5701
:01189C002229
:10005600E4F531F532F533F538F539F53AF53BE5A2
:10006600AA548460030205B190E694E0FE90E695FA
:10007600E0FBEEF538EBF539C39405E5389400401E
:100086000790F404E0FD80027DFFED1207D600CB59
:1000960001014E0203D00B00E10D01BF0E01850FD9
:1000A60002391103671302F91503F931044F3204BB
:1000B600623404AA3504C13604DD3703DD4503EE98
:1000C600470000053175310075320790FC047481D4
:1000D600F0A37414F0E4A3F00205547F0D121E1968
:1000E600753100753206748012000E8F3B74002540
:1000F60033F582E434F4F583E0B4FF03753B51E550
:100106003B64506009E53B645160030204A17E0034
:1001160074102533F9EE34F4FA7B0175410075420B
:100126000C7DFF121DC97E0074002533F9EE34F4F0
:10013600FA7B0112148590FC05EFF0E4FF120D61C5
:100146001210ED7F8D0203CA753100753206748276
:1001560012000E8F3B7B007A00793CE4FDFC121501
:100166003790FC05E53CF07E0074002533F9EE344B
:10017600F4FA7B01E4FDFCAF3B12181A0205547F2A
:100186000F121E1975310075320690FC047480F04A
:10019600E4A3F0753305F564FE74002533F9EE34F7
:1001A600F4FA7B01121917400690FC05740EF0E470
:1001B600FF120D617F8F0203CA7F0E121E19753161
:1001C6000075320590FC04748EF01200158F3B7B8F
:1001D600007A00793CE4FDFC121537E53B6451607A
:1001E60019E53B6450601375310075320690FC04C6
:1001F6007480F0A3740BF002055490E0BCE0FF128B
:100206000D6174002532F974FC3531FA7B01C003A7
:100216008B487549E0754A6E754B00754C2CD003BA
:10022600121C14742C2532F532E43531F5317F8EEB
:100236000203CA75310075320790FC047491F09080
:10024600E678E090FC05F030B4047F0180027F0080
:1002560090FC06EFF074002532F974FC3531FA7B18
:1002660001754100754212E4FD121DC97400253264
:10027600F974FC3531FA7B01C0038B487549E0758A
:100286004A39754B00754C06D003121C14740625AA
:1002960032F532E43531F531FE74002532F974FC5D
:1002A6003EFA7B01C0038B487549E0754A14754BCD
:1002B60000754C06D003121C1474062532F532E480
:1002C6003531F531FE74002532F974FC3EFA7B01B6
:1002D600C0038B487549E0754A4B754B00754C0653
:1002E600D003121C1474062532F532E43531F5318B
:1002F6000205547F15121E1975310075320690FCE1
:10030600047480F0E4A3F01200158F3BE53B6451C2
:10031600704575341DF535F536753705D3E53594D5
:1003260018E534941D503674002537F58274F4357B
:1003360036F583E0F53C7B007A00793CAD35AC348C
:10034600AF3B12181A0535E535700205340537E559
:100356003770C9053680C590FC057401F07F95801D
:10036600637F13121E1975310075321D90FC0474DB
:1003760093F01200158F3B75361D753700753400E6
:10038600753505D3E5379418E536941D5034E53BAD
:10039600B4510E7B007A00793CAD37AC36FF1215AE
:1003A6003774002535F58274FC3534F583E53CF069
:1003B6000537E537700205360535E53570C5053470
:1003C60080C17F93121E19020554E4F531F5327F80
:1003D60002121795020554E4FF120D611210EDE4A6
:1003E600FF121A57E4FF80027F01121795121E4B67
:1003F60002055475310075320690FC047480F0E4F1
:10040600A3F090F405E0F53AE4F564E53A6401609A
:1004160004E53A701290E0B6E0FEA3E054F06460A2
:100426007003EE64116002807290E037E070028023
:1004360058E5646401600AE564700C121CBAEF604A
:1004460006853A640205548052753100753206906D
:10045600FC0474B2F0A3E564F0020554753100752E
:10046600320690FC047480F0E4A3F090F405E0F505
:100476003AFF121A57EF24F1600F1460152410701A
:100486001AE4F531F53202055490FC05740FF002BA
:10049600055490FC057410F002055490FC05740197
:1004A600F002055475310075320690FC0474B5F0FF
:1004B60090E0BBE090FC05F0020554753100753202
:1004C6000690FC0474B6F0A280E43325E0FFA28116
:1004D600E4334FA3F0807785383185393290FC04B8
:1004E60074B7F0753305C3E5399533FFE5389400E5
:1004F600FE74002533F582E434F4F583E064886005
:100506004DAD337C0074002DF9EC34F4FA7B01C058
:1005160003C00174002DF9EC34FC8B54F555895653
:100526008F57D001D003121B078023753100753217
:100536000690FC047480F0C3E5399405E538940010
:100546005006A37407F0800690FC057406F090F43C
:1005560004E0B48004A3E0701290F404E064056043
:100566000FE06407600AE064096005E490E038F093
:10057600E5324531602CE532FD90FC00F0E531FFB7
:10058600A3F090F402E090FC02F090F403E090FCFB
:1005960003F090E69CEFF000000090E69DEDF00081
:0B05A600000090E6957480F00000005B
:0105B1002227
:02004100D322C8
:0800030090E6BAE0F570D3228B
:101F180090E740E570F0E490E68AF090E68B04F0F4
:021F2800D322C2
:081F4D0090E6BAE0F56DD32225
:101F2A0090E740E56DF0E490E68AF090E68B04F0E5
:021F3A00D322B0
:101DF10090E6B9E0242F600D04701990E604E0FF2D
:101E0100430780800890E604E0FF53077F0000004D
:071E1100EFF08002D322C3B1
:011E180022A7
:101E6300C0E0C083C082D2015391EF90E65D74015C
:081E7300F0D082D083D0E032F0
:101EAA00C0E0C083C0825391EF90E65D7404F0D025
:061EBA0082D083D0E0326B
:101EC000C0E0C083C0825391EF90E65D7402F0D011
:061ED00082D083D0E03255
:101C4E00C0E0C083C08285656085666185618285DE
:101C5E006083A37402F0855C62855D638563828513
:101C6E006283A37407F05391EF90E65D7410F0D089
:061C7E0082D083D0E032A9
:101E7B00C0E0C083C082D2035391EF90E65D74083B
:081E8B00F0D082D083D0E032D8
:101BD700C0E0C083C08290E680E030E720855C608B
:101BE700855D61856182856083A37402F085656286
:101BF700856663856382856283A37407F05391EFDB
:0D1C070090E65D7420F0D082D083D0E032F2
:101EE900000102020303040405050300000000C009
:031EF900C2000024
:0611E000016400015B0048
:03000B0002126B73
:10126B00C0E0C0F0C083C082C0D075D000C000C049
:0D127B0001C002C003C004C005C006C007CA
:1012880078217C007D007BFF7A1E79F37E007F0544
:1012980012068290E0BBE0F526C204752700E55BE4
:1012A8006004155B8056755B05E5647004C20480B4
:1012B80043A280308101B3500B3081047F0080301D
:1012C8007F01802C30B41575540075550075562172
:1012D8007557057B007A007921121B07E523540115
:1012E800F527701090E0BBE060047F0080027F016A
:0C12F8008F26D204300405AF26121A57CE
:10130400D007D006D005D004D003D002D001D0003D
:0B131400D0D0D082D083D0F0D0E032E7
:100C3400785B7CE17D017BFF7A1E79F87E007F047E
:100C4400120682C203C200D202C201121D9F121EEA
:100C540093121675755E0F755F0075670F756812D0
:100C6400755C0F755D1C75650F75667085656285AD
:100C7400666375690F756AB412001590E159EFF057
:100C84007B017AE1795AE4FDFC12153790E15AE0D0
:100C9400FF90E036F0E490E0BCF0EF64C26059EFFE
:100CA40064C06054E490E15FF090E15FE0FFC394BE
:100CB40004504A745B2FF582E434E1F583E0FF606D
:100CC4003C120D617EE07F6E7CE07DBD12189D7E3E
:100CD400E07FBDAD6FAC6E120E8B501490E15FE0FF
:100CE400245BF582E434E1F583E090E0BCF0800D10
:100CF40090E15FE004F080B1E4FF120D611210EDA9
:100D0400D2E843D82090E668E04409F090E65CE03D
:100D1400443DF012001590E159EFF07B017AE1793E
:100D24005AE4FDFC12153790E15AE064C26007E40E
:100D340090E0BBF0C2B57F01121795D2AFD28C53AD
:100D44008EF8C203C2AF120056D2AF3001051208AA
:0D0D54009DC2013003EEC203121D4880E76E
:0B00460090E50DE030E402C322D3225D
:10089D0090E6B9E070030209621470030209D724CF
:1008AD00FE7003020A5224FB700302095C147003EC
:1008BD0002095614700302094A14700302095024E8
:1008CD00056003020AB11200414003020ABD90E621
:1008DD00BBE024FE602714603E24FD6011146027E8
:1008ED0024067056E55E90E6B3F0E55F8042120097
:1008FD00465044E56790E6B3F0E5688033E56090D7
:10090D00E6B3F0E5618029856562856663E56290F1
:10091D00E6B3F0E563801990E6BAE0FF121D74AA04
:10092D0006A9077B01EA494B600DEE90E6B3F0EFA7
:10093D0090E6B4F0020ABD020AAC020AAC121F2AFC
:10094D00020ABD121F4D020ABD120003020ABD129A
:10095D001F18020ABD90E6B8E0247F6015146019D7
:10096D0024027063A200E43325E0FFA202E4334FBA
:10097D008041E490E740F0803F90E6BCE0547EFF7C
:10098D007E00E0D394807C0040047D0180027D00D8
:10099D00EC4EFEED4F24E9F582741E3EF583E49393
:1009AD00FF3395E0FEEF24A1FFEE34E68F82F58351
:1009BD00E0540190E740F0E4A3F090E68AF090E671
:1009CD008B7402F0020ABD020AAC90E6B8E024FE78
:1009DD00601624026003020ABD90E6BAE0B4010578
:1009ED00C200020ABD020AAC90E6BAE0705590E66C
:1009FD00BCE0547EFF7E00E0D394807C0040047DFB
:100A0D000180027D00EC4EFEED4F24E9F582741E4F
:100A1D003EF583E493FF3395E0FEEF24A1FFEE3422
:100A2D00E68F82F583E054FEF090E6BCE05480132F
:100A3D001313541FFFE0540F2F90E683F0E0442072
:100A4D00F0806D805A90E6B8E024FE6019240270A3
:100A5D004E90E6BAE0B40104D200805490E6BAE0BC
:100A6D006402604C803990E6BCE0547EFF7E00E06D
:100A7D00D394807C0040047D0180027D00EC4EFE0D
:100A8D00ED4F24E9F582741E3EF583E493FF339513
:100A9D00E0FEEF24A1FFEE34E68F82F583800D900A
:100AAD00E6A08008121DF1500790E6A0E04401F089
:070ABD0090E6A0E04480F088
:010AC400220F
:03003300021EFCAE
:041EFC0053D8EF3296
:1011E6006080E0D9292E43C9A2D87C013D3654A19E
:1011F600ECF0061362A705F3C0C7738C98932BD93E
:10120600BC4C82CA1E9B573CFDD4E01667426F1841
:101216008A17E512BE4EC4D6DA9EDE49A0FBF58ECD
:10122600BB2FEE7AA968799115B2073F94C210894F
:101236000B225F21807F5D9A5A903227353ECCE79C
:10124600BFF79703FF1930B348A5B5D1D75E922AE9
:10125600AC56AAC64FB838D296A47DB676FC6BE2D9
:041266009C7404F17F
:08131F008C458D46AB07AA06C0
:10132700E4F547F548C3E5489546E5456480F8E5A3
:101337004764809840030213CEE54825E0FFE54760
:1013470033FE74D92FF58274E03EF583E0FF7E000B
:10135700AC45AD461207348C498D4AE54825E0FF78
:10136700E54733FE74DA2FF58274E03EF583E0FF3C
:101377007E00AC45AD461207348C4B8D4CE54A6573
:101387004C7004E549654B6030EB254AF582EA3538
:1013970049F583E0F9EB254CF582EA354BF583E017
:1013A700FFEB254AF582EA3549F583EFF0EB254C4B
:1013B700F582EA354BF583E9F00548E54860030215
:0B13C700132C054702132C7E007F0151
:0113D20022F8
:0C13D3008E458F468C478D488A498B4A16
:1013DF00E54645456006E54845477004E4FEFF22B3
:1013EF00E4F54BF54CC3E54C954AE5496480F8E5C7
:1013FF004B648098507BE4F54DF54EE548254CF550
:10140F0082E547354BF583E4F0C3E54E954AE54950
:10141F006480F8E54D6480985049E54E254C24D9F9
:10142F00F582E434E0F583E0FFE546254EF582E5ED
:10143F0045354DF583E0FEEF8EF0A4FFE548254CD2
:10144F00F582E547354BF583E02FFFE548254CF551
:10145F0082E547354BF583EFF0054EE54E70AA0553
:10146F004D80A6054CE54C60030213F4054B0213A7
:05147F00F47E007F0176
:011484002245
:101D1A001206A8FF9000031206C11206EE900003F5
:101D2A00EF1207009000021206C1FF90000112068E
:0E1D3A00C1900002120700900001EF020700A6
:081026008E458F468C478D4872
:10102E00E4F549F54AE548AE477802CEA2E713CE7D
:10103E0013D8F8FFC3E54A9FEE6480F8E549648053
:10104E009840030210E8E54AAE497802C333CE3326
:10105E00CED8F92546FFEE3545FAA9077B018B4B15
:10106E00F54C894D74DA254AF582E434E0F583E0D7
:10107E00541FFFE48F51F550F54FF54E121D1AAB6C
:10108E004BAA4CA94D120790C374209551F9F81232
:10109E00077DC004C005C006C007A94D120790A960
:1010AE0051A80112076AD003D002D001D000EF4B35
:1010BE00FFEE4AFEED49FDEC48FCAB4BAA4CA94DA8
:1010CE001207B0AB4BAA4CA94D121D1A054AE54AA0
:0E10DE00600302103305490210337E007F01CB
:0110EC0022E1
:101C8400D3ED9410EC64809480402AED1D70011C07
:101C9400142FF582EE3CF583E0FB547F24D9F582C2
:101CA400E434E0F583E0F9540F2FF582E43EF58344
:051CB400E06BF080CBA5
:011CB9002208
:101D480090E682E030E004E020E60B90E682E030A6
:101D5800E119E030E71590E680E04401F07F147E59
:0C1D680000121B5190E680E054FEF022B7
:101CEB0030060990E680E0440AF0800790E680E039
:101CFB004408F07FDC7E05121B5190E65D74FFF00B
:0F1D0B0090E65FF05391EF90E680E054F7F022FE
:101B51008E598F5A90E600E054187012E55A24010C
:101B6100FFE43559C313F559EF13F55A801590E683
:101B710000E05418FFBF100BE55A25E0F55AE5596E
:101B810033F559E55A155AAE59700215594E60058B
:061B9100121F3C80EE2251
:0615D0008C508D51AE07A6
:1015D600EB70037F012290E678E020E6F990E6784A
:1015E6007480F0EE25E0440190E679F090E678E02C
:1015F60030E0F990E678E020E26BE030E167BB018D
:101606000790E678E04420F090E679E0F5521BEB8F
:10161600603090E678E030E0F990E678E020E24548
:10162600BB010790E678E04420F090E679E0FF05FC
:1016360051E551AC507002055014F5828C83EFF0E1
:1016460080CC90E678E030E0F990E678E020E2158C
:1016560090E678E04440F090E679E0855182855046
:0E16660083F07F012290E678E04440F07F00A0
:011674002253
:1019F10090E678E020E6F990E6787480F0EF25E053
:101A010090E679F090E678E030E0F990E678E02031
:101A1100E23AE030E136EBD3940040260DEDAE041E
:101A210070010C14F5828E83E090E679F01B90E64C
:101A310078E030E0F990E678E020E210E020E1D6AD
:101A4100800A90E678E04440F07F012290E678E059
:051A51004440F07F009D
:011A5600226D
:021D7400A907BD
:101D7600AE69AF6A8F828E83A3E064037017AD01EC
:101D860019ED7001228F828E83E07C002FFDEC3EE0
:081D9600FEAF0580DFE4FEFF53
:011D9E002222
:101F3C007400F58690FDA57C05A3E582458370F9B8
:011F4C002272
:03000000021709DB
:0C170900787FE4F6D8FD7581700217505F
:1005B200E709F608DFFA8046E709F208DFFA803E2B
:1005C20088828C83E709F0A3DFFA8032E309F60818
:1005D200DFFA8078E309F208DFFA807088828C8380
:1005E200E309F0A3DFFA806489828A83E0A3F60834
:1005F200DFFA805889828A83E0A3F208DFFA804C0E
:1006020080D280FA80C680D4806980F280338010E4
:1006120080A680EA809A80A880DA80E280CA80334D
:1006220089828A83ECFAE493A3C8C582C8CCC583C5
:10063200CCF0A3C8C582C8CCC583CCDFE9DEE78095
:100642000D89828A83E493A3F608DFF9ECFAA9F014
:10065200EDFB2289828A83ECFAE0A3C8C582C8CC6A
:10066200C583CCF0A3C8C582C8CCC583CCDFEADE83
:10067200E880DB89828A83E493A3F208DFF980CCE5
:1006820088F0EF60010E4E60C388F0ED2402B404DE
:100692000050B9F582EB2402B4040050AF23234585
:0606A200822390060273A2
:1006A800BB010689828A83E0225002E722BBFE0250
:0906B800E32289828A83E4932283
:1006C100BB010CE58229F582E5833AF583E02250EE
:1006D10006E92582F8E622BBFE06E92582F8E22238
:0D06E100E58229F582E5833AF583E4932252
:1006EE00BB010689828A83F0225002F722BBFE01EB
:0206FE00F322E5
:10070000F8BB010DE58229F582E5833AF583E8F02F
:10071000225006E92582C8F622BBFE05E92582C8DB
:02072000F222C3
:10072200EF8DF0A4A8F0CF8CF0A428CE8DF0A42EEB
:02073200FE22A5
:10073400C2D5EC30E709B2D5E4C39DFDE49CFCEEE0
:1007440030E715B2D5E4C39FFFE49EFE1207FCC355
:10075400E49DFDE49CFC80031207FC30D507C3E450
:060764009FFFE49EFE224F
:10076A00E8600FECC313FCED13FDEE13FEEF13FF6D
:03077A00D8F12291
:10077D00E8600FEFC333FFEE33FEED33FDEC33FCDA
:03078D00D8F1227E
:10079000BB010789828A8302085D5005E9F80208D7
:1007A00051BBFE05E9F802086989828A830208754F
:1007B000BB010789828A830207CA5005E9F802084B
:0A07C00085BBFE05E9F8020891224E
:0C07CA00ECF0A3EDF0A3EEF0A3EFF022A2
:1007D600D083D082F8E4937012740193700DA3A3B2
:1007E60093F8740193F5828883E4737402936860C6
:0607F600EFA3A3A380DFC6
:10171500020C34E493A3F8E493A34003F68001F2AA
:1017250008DFF48029E493A3F85407240CC8C333D5
:10173500C4540F4420C8834004F456800146F6DFA4
:10174500E4800B01020408102040809011ACE47E77
:10175500019360BCA3FF543F30E509541FFEE49399
:10176500A360010ECF54C025E060A840B8E493A360
:10177500FAE493A3F8E493A3C8C582C8CAC583CA8B
:10178500F0A3C8C582C8CAC583CADFE9DEE780BE43
:01126A000083
:1007FC00BC000BBE0029EF8DF084FFADF022E4CCE1
:10080C00F875F008EF2FFFEE33FEEC33FCEE9DECA9
:10081C00984005FCEE9DFE0FD5F0E9E4CEFD22EDEF
:10082C00F8F5F0EE8420D21CFEADF075F008EF2F39
:10083C00FFED33FD4007985006D5F0F222C398FD2A
:05084C000FD5F0EA22C7
:0C085100E6FC08E6FD08E6FE08E6FF22D3
:0C085D00E0FCA3E0FDA3E0FEA3E0FF220E
:0C086900E2FC08E2FD08E2FE08E2FF22CB
:10087500E493FC740193FD740293FE740393FF22C9
:0C088500ECF608EDF608EEF608EFF6229F
:0C089100ECF208EDF208EEF208EFF222A3
:00000001FF
